{
  "_format": "hh-sol-artifact-1",
  "contractName": "JustGovernanceUpgradeable",
  "sourceName": "contracts/JustGovernanceUpgradeable.sol",
  "abi": [
    {
      "inputs": [],
      "name": "AlrdyRef",
      "type": "error"
    },
    {
      "inputs": [],
      "name": "AlrdyVt",
      "type": "error"
    },
    {
      "inputs": [],
      "name": "CallFail",
      "type": "error"
    },
    {
      "inputs": [],
      "name": "IA",
      "type": "error"
    },
    {
      "inputs": [
        {
          "internalType": "uint256",
          "name": "a",
          "type": "uint256"
        },
        {
          "internalType": "uint256",
          "name": "r",
          "type": "uint256"
        }
      ],
      "name": "InsBal",
      "type": "error"
    },
    {
      "inputs": [],
      "name": "InvCD",
      "type": "error"
    },
    {
      "inputs": [
        {
          "internalType": "uint256",
          "name": "p",
          "type": "uint256"
        },
        {
          "internalType": "uint256",
          "name": "mn",
          "type": "uint256"
        },
        {
          "internalType": "uint256",
          "name": "mx",
          "type": "uint256"
        }
      ],
      "name": "InvDur",
      "type": "error"
    },
    {
      "inputs": [],
      "name": "InvLkIdx",
      "type": "error"
    },
    {
      "inputs": [],
      "name": "InvPId",
      "type": "error"
    },
    {
      "inputs": [],
      "name": "InvPct",
      "type": "error"
    },
    {
      "inputs": [],
      "name": "InvSel",
      "type": "error"
    },
    {
      "inputs": [],
      "name": "InvVtTyp",
      "type": "error"
    },
    {
      "inputs": [],
      "name": "LastAdm",
      "type": "error"
    },
    {
      "inputs": [],
      "name": "NoTxH",
      "type": "error"
    },
    {
      "inputs": [],
      "name": "NoVldChg",
      "type": "error"
    },
    {
      "inputs": [],
      "name": "NoVtPwr",
      "type": "error"
    },
    {
      "inputs": [],
      "name": "NotAuth",
      "type": "error"
    },
    {
      "inputs": [],
      "name": "NotDef",
      "type": "error"
    },
    {
      "inputs": [],
      "name": "NotInTL",
      "type": "error"
    },
    {
      "inputs": [],
      "name": "NotProp",
      "type": "error"
    },
    {
      "inputs": [],
      "name": "NotQ",
      "type": "error"
    },
    {
      "inputs": [],
      "name": "NotSucc",
      "type": "error"
    },
    {
      "inputs": [],
      "name": "PropCncl",
      "type": "error"
    },
    {
      "inputs": [],
      "name": "PropExec",
      "type": "error"
    },
    {
      "inputs": [],
      "name": "PropNotExp",
      "type": "error"
    },
    {
      "inputs": [],
      "name": "TLExecFail",
      "type": "error"
    },
    {
      "inputs": [],
      "name": "TxFail",
      "type": "error"
    },
    {
      "inputs": [],
      "name": "VtEnd",
      "type": "error"
    },
    {
      "inputs": [],
      "name": "ZA",
      "type": "error"
    },
    {
      "anonymous": false,
      "inputs": [
        {
          "indexed": false,
          "internalType": "address",
          "name": "previousAdmin",
          "type": "address"
        },
        {
          "indexed": false,
          "internalType": "address",
          "name": "newAdmin",
          "type": "address"
        }
      ],
      "name": "AdminChanged",
      "type": "event"
    },
    {
      "anonymous": false,
      "inputs": [
        {
          "indexed": true,
          "internalType": "address",
          "name": "beacon",
          "type": "address"
        }
      ],
      "name": "BeaconUpgraded",
      "type": "event"
    },
    {
      "anonymous": false,
      "inputs": [
        {
          "indexed": true,
          "internalType": "address",
          "name": "token",
          "type": "address"
        },
        {
          "indexed": true,
          "internalType": "address",
          "name": "timelock",
          "type": "address"
        },
        {
          "indexed": true,
          "internalType": "address",
          "name": "admin",
          "type": "address"
        }
      ],
      "name": "ContractInitialized",
      "type": "event"
    },
    {
      "anonymous": false,
      "inputs": [
        {
          "indexed": true,
          "internalType": "address",
          "name": "pauser",
          "type": "address"
        }
      ],
      "name": "ContractPaused",
      "type": "event"
    },
    {
      "anonymous": false,
      "inputs": [
        {
          "indexed": true,
          "internalType": "address",
          "name": "unpauser",
          "type": "address"
        }
      ],
      "name": "ContractUnpaused",
      "type": "event"
    },
    {
      "anonymous": false,
      "inputs": [
        {
          "indexed": false,
          "internalType": "uint8",
          "name": "pType",
          "type": "uint8"
        },
        {
          "indexed": false,
          "internalType": "uint256",
          "name": "oldVal",
          "type": "uint256"
        },
        {
          "indexed": false,
          "internalType": "uint256",
          "name": "newVal",
          "type": "uint256"
        }
      ],
      "name": "GovParamChange",
      "type": "event"
    },
    {
      "anonymous": false,
      "inputs": [
        {
          "indexed": false,
          "internalType": "uint8",
          "name": "version",
          "type": "uint8"
        }
      ],
      "name": "Initialized",
      "type": "event"
    },
    {
      "anonymous": false,
      "inputs": [
        {
          "indexed": false,
          "internalType": "address",
          "name": "account",
          "type": "address"
        }
      ],
      "name": "Paused",
      "type": "event"
    },
    {
      "anonymous": false,
      "inputs": [
        {
          "indexed": true,
          "internalType": "uint256",
          "name": "proposalId",
          "type": "uint256"
        },
        {
          "indexed": true,
          "internalType": "uint8",
          "name": "eventType",
          "type": "uint8"
        },
        {
          "indexed": true,
          "internalType": "address",
          "name": "actor",
          "type": "address"
        },
        {
          "indexed": false,
          "internalType": "bytes",
          "name": "data",
          "type": "bytes"
        }
      ],
      "name": "ProposalEvent",
      "type": "event"
    },
    {
      "anonymous": false,
      "inputs": [
        {
          "indexed": true,
          "internalType": "bytes32",
          "name": "role",
          "type": "bytes32"
        },
        {
          "indexed": true,
          "internalType": "bytes32",
          "name": "previousAdminRole",
          "type": "bytes32"
        },
        {
          "indexed": true,
          "internalType": "bytes32",
          "name": "newAdminRole",
          "type": "bytes32"
        }
      ],
      "name": "RoleAdminChanged",
      "type": "event"
    },
    {
      "anonymous": false,
      "inputs": [
        {
          "indexed": true,
          "internalType": "bytes32",
          "name": "role",
          "type": "bytes32"
        },
        {
          "indexed": true,
          "internalType": "address",
          "name": "account",
          "type": "address"
        },
        {
          "indexed": false,
          "internalType": "bool",
          "name": "isGranted",
          "type": "bool"
        }
      ],
      "name": "RoleChange",
      "type": "event"
    },
    {
      "anonymous": false,
      "inputs": [
        {
          "indexed": true,
          "internalType": "bytes32",
          "name": "role",
          "type": "bytes32"
        },
        {
          "indexed": true,
          "internalType": "address",
          "name": "account",
          "type": "address"
        },
        {
          "indexed": true,
          "internalType": "address",
          "name": "sender",
          "type": "address"
        }
      ],
      "name": "RoleGranted",
      "type": "event"
    },
    {
      "anonymous": false,
      "inputs": [
        {
          "indexed": true,
          "internalType": "bytes32",
          "name": "role",
          "type": "bytes32"
        },
        {
          "indexed": true,
          "internalType": "address",
          "name": "account",
          "type": "address"
        },
        {
          "indexed": true,
          "internalType": "address",
          "name": "sender",
          "type": "address"
        }
      ],
      "name": "RoleRevoked",
      "type": "event"
    },
    {
      "anonymous": false,
      "inputs": [
        {
          "indexed": false,
          "internalType": "bytes4",
          "name": "selector",
          "type": "bytes4"
        },
        {
          "indexed": false,
          "internalType": "bool",
          "name": "selectorAllowed",
          "type": "bool"
        },
        {
          "indexed": false,
          "internalType": "address",
          "name": "target",
          "type": "address"
        },
        {
          "indexed": false,
          "internalType": "bool",
          "name": "targetAllowed",
          "type": "bool"
        }
      ],
      "name": "SecuritySettingUpdated",
      "type": "event"
    },
    {
      "anonymous": false,
      "inputs": [
        {
          "indexed": true,
          "internalType": "uint256",
          "name": "proposalId",
          "type": "uint256"
        },
        {
          "indexed": true,
          "internalType": "bytes32",
          "name": "txHash",
          "type": "bytes32"
        }
      ],
      "name": "TimelockTransactionSubmitted",
      "type": "event"
    },
    {
      "anonymous": false,
      "inputs": [
        {
          "indexed": false,
          "internalType": "address",
          "name": "account",
          "type": "address"
        }
      ],
      "name": "Unpaused",
      "type": "event"
    },
    {
      "anonymous": false,
      "inputs": [
        {
          "indexed": true,
          "internalType": "address",
          "name": "implementation",
          "type": "address"
        }
      ],
      "name": "Upgraded",
      "type": "event"
    },
    {
      "anonymous": false,
      "inputs": [
        {
          "indexed": true,
          "internalType": "uint256",
          "name": "proposalId",
          "type": "uint256"
        },
        {
          "indexed": true,
          "internalType": "address",
          "name": "voter",
          "type": "address"
        },
        {
          "indexed": false,
          "internalType": "uint8",
          "name": "support",
          "type": "uint8"
        },
        {
          "indexed": false,
          "internalType": "uint256",
          "name": "votingPower",
          "type": "uint256"
        }
      ],
      "name": "VoteCast",
      "type": "event"
    },
    {
      "inputs": [],
      "name": "ADMIN_ROLE",
      "outputs": [
        {
          "internalType": "bytes32",
          "name": "",
          "type": "bytes32"
        }
      ],
      "stateMutability": "view",
      "type": "function"
    },
    {
      "inputs": [],
      "name": "DEFAULT_ADMIN_ROLE",
      "outputs": [
        {
          "internalType": "bytes32",
          "name": "",
          "type": "bytes32"
        }
      ],
      "stateMutability": "view",
      "type": "function"
    },
    {
      "inputs": [],
      "name": "GUARDIAN_ROLE",
      "outputs": [
        {
          "internalType": "bytes32",
          "name": "",
          "type": "bytes32"
        }
      ],
      "stateMutability": "view",
      "type": "function"
    },
    {
      "inputs": [
        {
          "internalType": "bytes4",
          "name": "",
          "type": "bytes4"
        }
      ],
      "name": "allowedFunctionSelectors",
      "outputs": [
        {
          "internalType": "bool",
          "name": "",
          "type": "bool"
        }
      ],
      "stateMutability": "view",
      "type": "function"
    },
    {
      "inputs": [
        {
          "internalType": "address",
          "name": "",
          "type": "address"
        }
      ],
      "name": "allowedTargets",
      "outputs": [
        {
          "internalType": "bool",
          "name": "",
          "type": "bool"
        }
      ],
      "stateMutability": "view",
      "type": "function"
    },
    {
      "inputs": [
        {
          "internalType": "uint256",
          "name": "proposalId",
          "type": "uint256"
        }
      ],
      "name": "cancelProposal",
      "outputs": [],
      "stateMutability": "nonpayable",
      "type": "function"
    },
    {
      "inputs": [
        {
          "internalType": "uint256",
          "name": "proposalId",
          "type": "uint256"
        },
        {
          "internalType": "uint8",
          "name": "support",
          "type": "uint8"
        }
      ],
      "name": "castVote",
      "outputs": [
        {
          "internalType": "uint256",
          "name": "",
          "type": "uint256"
        }
      ],
      "stateMutability": "nonpayable",
      "type": "function"
    },
    {
      "inputs": [
        {
          "internalType": "uint256",
          "name": "proposalId",
          "type": "uint256"
        }
      ],
      "name": "claimPartialStakeRefund",
      "outputs": [],
      "stateMutability": "nonpayable",
      "type": "function"
    },
    {
      "inputs": [
        {
          "internalType": "string",
          "name": "description",
          "type": "string"
        },
        {
          "internalType": "enum JustGovernanceUpgradeable.ProposalType",
          "name": "proposalType",
          "type": "uint8"
        },
        {
          "internalType": "address",
          "name": "target",
          "type": "address"
        },
        {
          "internalType": "bytes",
          "name": "callData",
          "type": "bytes"
        },
        {
          "internalType": "uint256",
          "name": "amount",
          "type": "uint256"
        },
        {
          "internalType": "address payable",
          "name": "recipient",
          "type": "address"
        },
        {
          "internalType": "address",
          "name": "externalToken",
          "type": "address"
        },
        {
          "internalType": "uint256",
          "name": "newThreshold",
          "type": "uint256"
        },
        {
          "internalType": "uint256",
          "name": "newQuorum",
          "type": "uint256"
        },
        {
          "internalType": "uint256",
          "name": "newVotingDuration",
          "type": "uint256"
        },
        {
          "internalType": "uint256",
          "name": "newTimelockDelay",
          "type": "uint256"
        }
      ],
      "name": "createProposal",
      "outputs": [
        {
          "internalType": "uint256",
          "name": "",
          "type": "uint256"
        }
      ],
      "stateMutability": "nonpayable",
      "type": "function"
    },
    {
      "inputs": [
        {
          "internalType": "string",
          "name": "description",
          "type": "string"
        }
      ],
      "name": "createSignalingProposal",
      "outputs": [
        {
          "internalType": "uint256",
          "name": "",
          "type": "uint256"
        }
      ],
      "stateMutability": "nonpayable",
      "type": "function"
    },
    {
      "inputs": [
        {
          "internalType": "uint256",
          "name": "proposalId",
          "type": "uint256"
        }
      ],
      "name": "executeProposal",
      "outputs": [],
      "stateMutability": "nonpayable",
      "type": "function"
    },
    {
      "inputs": [
        {
          "internalType": "uint256",
          "name": "proposalId",
          "type": "uint256"
        },
        {
          "internalType": "enum JustGovernanceUpgradeable.ProposalType",
          "name": "proposalType",
          "type": "uint8"
        },
        {
          "internalType": "address",
          "name": "proposalTarget",
          "type": "address"
        },
        {
          "internalType": "address",
          "name": "recipient",
          "type": "address"
        },
        {
          "internalType": "uint256",
          "name": "amount",
          "type": "uint256"
        },
        {
          "internalType": "address",
          "name": "token",
          "type": "address"
        }
      ],
      "name": "executeProposalLogic",
      "outputs": [],
      "stateMutability": "nonpayable",
      "type": "function"
    },
    {
      "inputs": [
        {
          "internalType": "uint256",
          "name": "proposalId",
          "type": "uint256"
        }
      ],
      "name": "getProposalState",
      "outputs": [
        {
          "internalType": "enum JustGovernanceUpgradeable.ProposalState",
          "name": "",
          "type": "uint8"
        }
      ],
      "stateMutability": "view",
      "type": "function"
    },
    {
      "inputs": [
        {
          "internalType": "uint256",
          "name": "proposalId",
          "type": "uint256"
        }
      ],
      "name": "getProposalVoteTotals",
      "outputs": [
        {
          "internalType": "uint256",
          "name": "forVotes",
          "type": "uint256"
        },
        {
          "internalType": "uint256",
          "name": "againstVotes",
          "type": "uint256"
        },
        {
          "internalType": "uint256",
          "name": "abstainVotes",
          "type": "uint256"
        },
        {
          "internalType": "uint256",
          "name": "totalVotingPower",
          "type": "uint256"
        },
        {
          "internalType": "uint256",
          "name": "voterCount",
          "type": "uint256"
        }
      ],
      "stateMutability": "view",
      "type": "function"
    },
    {
      "inputs": [
        {
          "internalType": "bytes32",
          "name": "role",
          "type": "bytes32"
        }
      ],
      "name": "getRoleAdmin",
      "outputs": [
        {
          "internalType": "bytes32",
          "name": "",
          "type": "bytes32"
        }
      ],
      "stateMutability": "view",
      "type": "function"
    },
    {
      "inputs": [
        {
          "internalType": "bytes32",
          "name": "role",
          "type": "bytes32"
        },
        {
          "internalType": "uint256",
          "name": "index",
          "type": "uint256"
        }
      ],
      "name": "getRoleMember",
      "outputs": [
        {
          "internalType": "address",
          "name": "",
          "type": "address"
        }
      ],
      "stateMutability": "view",
      "type": "function"
    },
    {
      "inputs": [
        {
          "internalType": "bytes32",
          "name": "role",
          "type": "bytes32"
        }
      ],
      "name": "getRoleMemberCount",
      "outputs": [
        {
          "internalType": "uint256",
          "name": "",
          "type": "uint256"
        }
      ],
      "stateMutability": "view",
      "type": "function"
    },
    {
      "inputs": [],
      "name": "govParams",
      "outputs": [
        {
          "internalType": "uint256",
          "name": "votingDuration",
          "type": "uint256"
        },
        {
          "internalType": "uint256",
          "name": "quorum",
          "type": "uint256"
        },
        {
          "internalType": "uint256",
          "name": "timelockDelay",
          "type": "uint256"
        },
        {
          "internalType": "uint256",
          "name": "proposalCreationThreshold",
          "type": "uint256"
        },
        {
          "internalType": "uint256",
          "name": "proposalStake",
          "type": "uint256"
        },
        {
          "internalType": "uint256",
          "name": "defeatedRefundPercentage",
          "type": "uint256"
        },
        {
          "internalType": "uint256",
          "name": "canceledRefundPercentage",
          "type": "uint256"
        },
        {
          "internalType": "uint256",
          "name": "expiredRefundPercentage",
          "type": "uint256"
        }
      ],
      "stateMutability": "view",
      "type": "function"
    },
    {
      "inputs": [
        {
          "internalType": "bytes32",
          "name": "role",
          "type": "bytes32"
        },
        {
          "internalType": "address",
          "name": "account",
          "type": "address"
        }
      ],
      "name": "grantContractRole",
      "outputs": [],
      "stateMutability": "nonpayable",
      "type": "function"
    },
    {
      "inputs": [
        {
          "internalType": "bytes32",
          "name": "role",
          "type": "bytes32"
        },
        {
          "internalType": "address",
          "name": "account",
          "type": "address"
        }
      ],
      "name": "grantRole",
      "outputs": [],
      "stateMutability": "nonpayable",
      "type": "function"
    },
    {
      "inputs": [
        {
          "internalType": "bytes32",
          "name": "role",
          "type": "bytes32"
        },
        {
          "internalType": "address",
          "name": "account",
          "type": "address"
        }
      ],
      "name": "hasRole",
      "outputs": [
        {
          "internalType": "bool",
          "name": "",
          "type": "bool"
        }
      ],
      "stateMutability": "view",
      "type": "function"
    },
    {
      "inputs": [
        {
          "internalType": "string",
          "name": "name",
          "type": "string"
        },
        {
          "internalType": "address",
          "name": "tokenAddress",
          "type": "address"
        },
        {
          "internalType": "address",
          "name": "timelockAddress",
          "type": "address"
        },
        {
          "internalType": "address",
          "name": "admin",
          "type": "address"
        },
        {
          "internalType": "uint256",
          "name": "proposalThreshold",
          "type": "uint256"
        },
        {
          "internalType": "uint256",
          "name": "votingDelay",
          "type": "uint256"
        },
        {
          "internalType": "uint256",
          "name": "votingPeriod",
          "type": "uint256"
        },
        {
          "internalType": "uint256",
          "name": "quorumNumerator",
          "type": "uint256"
        },
        {
          "internalType": "uint256",
          "name": "successfulRefund",
          "type": "uint256"
        },
        {
          "internalType": "uint256",
          "name": "cancelledRefund",
          "type": "uint256"
        },
        {
          "internalType": "uint256",
          "name": "defeatedRefund",
          "type": "uint256"
        },
        {
          "internalType": "uint256",
          "name": "expiredRefund",
          "type": "uint256"
        }
      ],
      "name": "initialize",
      "outputs": [],
      "stateMutability": "nonpayable",
      "type": "function"
    },
    {
      "inputs": [],
      "name": "justToken",
      "outputs": [
        {
          "internalType": "contract JustTokenUpgradeable",
          "name": "",
          "type": "address"
        }
      ],
      "stateMutability": "view",
      "type": "function"
    },
    {
      "inputs": [],
      "name": "maxVotingDuration",
      "outputs": [
        {
          "internalType": "uint256",
          "name": "",
          "type": "uint256"
        }
      ],
      "stateMutability": "view",
      "type": "function"
    },
    {
      "inputs": [],
      "name": "minVotingDuration",
      "outputs": [
        {
          "internalType": "uint256",
          "name": "",
          "type": "uint256"
        }
      ],
      "stateMutability": "view",
      "type": "function"
    },
    {
      "inputs": [],
      "name": "pause",
      "outputs": [],
      "stateMutability": "nonpayable",
      "type": "function"
    },
    {
      "inputs": [],
      "name": "paused",
      "outputs": [
        {
          "internalType": "bool",
          "name": "",
          "type": "bool"
        }
      ],
      "stateMutability": "view",
      "type": "function"
    },
    {
      "inputs": [
        {
          "internalType": "uint256",
          "name": "",
          "type": "uint256"
        },
        {
          "internalType": "address",
          "name": "",
          "type": "address"
        }
      ],
      "name": "proposalVoterInfo",
      "outputs": [
        {
          "internalType": "uint256",
          "name": "",
          "type": "uint256"
        }
      ],
      "stateMutability": "view",
      "type": "function"
    },
    {
      "inputs": [],
      "name": "proxiableUUID",
      "outputs": [
        {
          "internalType": "bytes32",
          "name": "",
          "type": "bytes32"
        }
      ],
      "stateMutability": "view",
      "type": "function"
    },
    {
      "inputs": [
        {
          "internalType": "uint256",
          "name": "proposalId",
          "type": "uint256"
        }
      ],
      "name": "queueProposal",
      "outputs": [],
      "stateMutability": "nonpayable",
      "type": "function"
    },
    {
      "inputs": [
        {
          "internalType": "bytes32",
          "name": "role",
          "type": "bytes32"
        },
        {
          "internalType": "address",
          "name": "account",
          "type": "address"
        }
      ],
      "name": "renounceRole",
      "outputs": [],
      "stateMutability": "nonpayable",
      "type": "function"
    },
    {
      "inputs": [
        {
          "internalType": "bytes32",
          "name": "role",
          "type": "bytes32"
        },
        {
          "internalType": "address",
          "name": "account",
          "type": "address"
        }
      ],
      "name": "revokeContractRole",
      "outputs": [],
      "stateMutability": "nonpayable",
      "type": "function"
    },
    {
      "inputs": [
        {
          "internalType": "bytes32",
          "name": "role",
          "type": "bytes32"
        },
        {
          "internalType": "address",
          "name": "account",
          "type": "address"
        }
      ],
      "name": "revokeRole",
      "outputs": [],
      "stateMutability": "nonpayable",
      "type": "function"
    },
    {
      "inputs": [
        {
          "internalType": "bytes4",
          "name": "interfaceId",
          "type": "bytes4"
        }
      ],
      "name": "supportsInterface",
      "outputs": [
        {
          "internalType": "bool",
          "name": "",
          "type": "bool"
        }
      ],
      "stateMutability": "view",
      "type": "function"
    },
    {
      "inputs": [],
      "name": "timelock",
      "outputs": [
        {
          "internalType": "contract JustTimelockUpgradeable",
          "name": "",
          "type": "address"
        }
      ],
      "stateMutability": "view",
      "type": "function"
    },
    {
      "inputs": [],
      "name": "unpause",
      "outputs": [],
      "stateMutability": "nonpayable",
      "type": "function"
    },
    {
      "inputs": [
        {
          "internalType": "uint8",
          "name": "paramType",
          "type": "uint8"
        },
        {
          "internalType": "uint256",
          "name": "newValue",
          "type": "uint256"
        }
      ],
      "name": "updateGovParam",
      "outputs": [],
      "stateMutability": "nonpayable",
      "type": "function"
    },
    {
      "inputs": [
        {
          "internalType": "address",
          "name": "guardian",
          "type": "address"
        },
        {
          "internalType": "bool",
          "name": "isAdding",
          "type": "bool"
        }
      ],
      "name": "updateGuardian",
      "outputs": [],
      "stateMutability": "nonpayable",
      "type": "function"
    },
    {
      "inputs": [
        {
          "internalType": "bytes4",
          "name": "selector",
          "type": "bytes4"
        },
        {
          "internalType": "bool",
          "name": "selectorAllowed",
          "type": "bool"
        },
        {
          "internalType": "address",
          "name": "target",
          "type": "address"
        },
        {
          "internalType": "bool",
          "name": "targetAllowed",
          "type": "bool"
        }
      ],
      "name": "updateSecurity",
      "outputs": [],
      "stateMutability": "nonpayable",
      "type": "function"
    },
    {
      "inputs": [
        {
          "internalType": "address",
          "name": "newImplementation",
          "type": "address"
        }
      ],
      "name": "upgradeTo",
      "outputs": [],
      "stateMutability": "nonpayable",
      "type": "function"
    },
    {
      "inputs": [
        {
          "internalType": "address",
          "name": "newImplementation",
          "type": "address"
        },
        {
          "internalType": "bytes",
          "name": "data",
          "type": "bytes"
        }
      ],
      "name": "upgradeToAndCall",
      "outputs": [],
      "stateMutability": "payable",
      "type": "function"
    },
    {
      "stateMutability": "payable",
      "type": "receive"
    }
  ],
  "bytecode": "0x60a0604052346200003657620000146200003b565b604051615e2462000093823960805181818161147501526115c10152615e2490f35b600080fd5b6200004562000082565b565b6200005d9062000060906001600160a01b031682565b90565b6001600160a01b031690565b6200005d9062000047565b6200005d906200006c565b6200008d3062000077565b60805256fe60806040526004361015610023575b361561001957600080fd5b610021615daf565b005b60003560e01c806301ffc9a7146102b357806309729350146102ae5780630d61b519146102a95780631b9ad0e4146102a4578063248a9ca31461029f57806324ea54f41461029a5780632f2ff15d14610295578063338a035a1461029057806336568abe1461028b5780633659cfe6146102865780633f4ba83a146102815780634f1ef2861461027c57806352d1902d146102775780635612a6f014610272578063567813881461026d5780635714936c146102685780635c975abb14610263578063643aa8b31461025e5780636df7bab3146102595780636e5ce0501461025457806370d26de51461024f57806375b238fc1461024a5780638456cb591461024557806388f4950f146102405780639010d07c1461023b5780639080936f1461023657806391d148541461023157806394a14a341461022c5780639d49257c14610227578063a217fddf14610222578063b80965991461021d578063b860f7f314610218578063b8fe8d5f14610213578063ca15c8731461020e578063cc39548c14610209578063d33219b414610204578063d547741f146101ff578063d7b4e978146101fa578063dbd62506146101f5578063e0a8f6f5146101f05763f21c00ba0361000e57610f44565b610f2c565b610f11565b610ee8565b610ea6565b610e7f565b610e10565b610db8565b610d9d565b610d1f565b610c88565b610c13565b610be6565b610bc1565b610ba5565b610b7e565b610af6565b610ac3565b610a88565b610a61565b610a48565b610a1d565b6108f0565b6108c7565b61082f565b610813565b6107a6565b61075b565b61067b565b610667565b610554565b61053c565b61050f565b6104f4565b610482565b610410565b6103da565b6103c1565b610370565b610353565b6102fa565b6001600160e01b031981165b036102cb57565b600080fd5b905035906102dd826102b8565b565b906020828203126102cb576102f3916102d0565b90565b9052565b346102cb576103286103156103103660046102df565b610f5d565b6040515b91829182901515815260200190565b0390f35b806102c4565b905035906102dd8261032c565b906020828203126102cb576102f391610332565b346102cb5761036b61036636600461033f565b615d30565b604051005b346102cb5761036b61038336600461033f565b615086565b60ff81166102c4565b905035906102dd82610388565b91906040838203126102cb576102f3906103b88185610391565b93602001610332565b346102cb5761036b6103d436600461039e565b90612e64565b346102cb576103286103f56103f036600461033f565b611038565b6040519182918290815260200190565b60009103126102cb57565b346102cb57610420366004610405565b610328600080516020615df88339815191526103f5565b6001600160a01b031690565b6001600160a01b0381166102c4565b905035906102dd82610443565b91906040838203126102cb576102f3906104798185610332565b93602001610452565b346102cb5761036b61049536600461045f565b9061106f565b6001600160e01b03191690565b906001600160e01b0319165b600052602052604060002090565b6102f3916008021c5b60ff1690565b906102f391546104c2565b6102f3906104ef6101a1916000926104a8565b6104d1565b346102cb5761032861031561050a3660046102df565b6104dc565b346102cb5761036b61052236600461045f565b906112c5565b906020828203126102cb576102f391610452565b346102cb5761036b61054f366004610528565b611682565b346102cb57610564366004610405565b61036b6127b9565b634e487b7160e01b600052604160045260246000fd5b90601f01601f191681019081106001600160401b038211176105a357604052565b61056c565b906102dd6105b560405190565b9283610582565b6001600160401b0381116105a357602090601f01601f19160190565b0190565b90826000939282370152565b909291926105fd6105f8826105bc565b6105a8565b938185526020850190828401116102cb576102dd926105dc565b9080601f830112156102cb578160206102f3933591016105e8565b9190916040818403126102cb576106498382610452565b9260208201356001600160401b0381116102cb576102f39201610617565b61036b610675366004610632565b906119db565b346102cb5761068b366004610405565b6103286103f56114e0565b9091610180828403126102cb5781356001600160401b0381116102cb57836106bf918401610617565b926106cd8160208501610452565b926106db8260408301610452565b926106e98360608401610452565b926106f78160808501610332565b926107058260a08301610332565b926107138360c08401610332565b926107218160e08501610332565b92610730826101008301610332565b926102f3610742846101208501610332565b93610751816101408601610332565b9361016001610332565b346102cb5761036b61076e366004610696565b9a999099989198979297969396959495612518565b91906040838203126102cb576102f39061079d8185610332565b93602001610391565b346102cb576103286103f56107bc366004610783565b906149b3565b8015156102c4565b905035906102dd826107c2565b6080818303126102cb576107eb82826102d0565b926102f36107fc84602085016107ca565b9361080a8160408601610452565b936060016107ca565b346102cb5761036b6108263660046107d7565b92919091612c98565b346102cb5761083f366004610405565b6103286103156119e5565b6102f36102f36102f39290565b906104b49061084a565b6102f390610437906001600160a01b031682565b6102f390610861565b6102f390610875565b906104b49061087e565b6102f3916008021c81565b906102f39154610891565b6108c26102f3926108bd61019493600094610857565b610887565b61089c565b346102cb576103286103f56108dd36600461045f565b906108a7565b6102f3600061019f61089c565b346102cb57610900366004610405565b6103286103f56108e3565b909182601f830112156102cb578135916001600160401b0383116102cb5760200192600183028401116102cb57565b600811156102cb57565b905035906102dd8261093a565b9190610160838203126102cb5782356001600160401b0381116102cb578161097a91850161090b565b92909361098a8360208301610944565b926109988160408401610452565b9260608301356001600160401b0381116102cb57826109b891850161090b565b9290936109c88260808301610332565b926109d68360a08401610452565b926109e48160c08501610452565b926109f28260e08301610332565b926102f3610a04846101008501610332565b93610a13816101208601610332565b9361014001610332565b346102cb576103286103f5610a33366004610951565b9b9a909a999199989298979397969496613ef4565b346102cb5761036b610a5b36600461045f565b90612aa9565b346102cb57610a71366004610405565b610328600080516020615dd88339815191526103f5565b346102cb57610a98366004610405565b61036b612664565b91906040838203126102cb576102f390610aba8185610452565b936020016107ca565b346102cb5761036b610ad6366004610aa0565b90612b6e565b91906040838203126102cb576102f3906103b88185610332565b346102cb57610328610b12610b0c366004610adc565b90610f8c565b6040515b918291826001600160a01b03909116815260200190565b634e487b7160e01b600052602160045260246000fd5b60071115610b4d57565b610b2d565b906102dd82610b43565b6102f390610b52565b6102f690610b5c565b6020810192916102dd9190610b65565b346102cb57610328610b99610b9436600461033f565b613132565b60405191829182610b6e565b346102cb57610328610315610bbb36600461045f565b90611010565b346102cb5761036b610bd436600461033f565b614d8b565b6102f360006101a061089c565b346102cb57610bf6366004610405565b6103286103f5610bd9565b6102f3600061084a565b6102f3610c01565b346102cb57610c23366004610405565b6103286103f5610c0b565b909160c0828403126102cb57610c448383610332565b92610c528160208501610944565b92610c608260408301610452565b926102f3610c718460608501610452565b93610c7f8160808601610332565b9360a001610452565b346102cb5761036b610c9b366004610c2e565b94939093929192615097565b6102f39081565b6102f39054610ca7565b61019790610cc582610cae565b91610cd260018201610cae565b91610cdf60028301610cae565b91610cec60038201610cae565b91610cf960048301610cae565b91610d0660058201610cae565b916102f36007610d1860068501610cae565b9301610cae565b346102cb57610d2f366004610405565b610328610d3a610cb8565b94610d4d98969894919493929360405190565b98899889908152610100810198979690959094909390929091602087015260408601526060850152608084015260a083015260c082015260e00152565b6102f3906104ef6101a291600092610887565b346102cb57610328610315610db3366004610528565b610d8a565b346102cb576103286103f5610dce36600461033f565b610fac565b909594926102dd94610e05610e0c92610dfe608096610df760a088019c6000890152565b6020870152565b6040850152565b6060830152565b0152565b346102cb57610328610e2b610e2636600461033f565b615d39565b91610e3895939560405190565b95869586610dd3565b6102f3916008021c610437565b906102f39154610e41565b6102f36000610192610e4e565b6102f69061087e565b6020810192916102dd9190610e66565b346102cb57610e8f366004610405565b610328610e9a610e59565b60405191829182610e6f565b346102cb5761036b610eb936600461045f565b9061123d565b906020828203126102cb5781356001600160401b0381116102cb57610ee4920161090b565b9091565b346102cb576103286103f5610efe366004610ebf565b9061437e565b6102f36000610191610e4e565b346102cb57610f21366004610405565b610328610e9a610f04565b346102cb5761036b610f3f36600461033f565b614631565b346102cb5761036b610f5736600461045f565b906129f7565b635a05180f60e01b6001600160e01b0319821614908115610f7c575090565b6102f39150610fc3565b906104b4565b90610fa76102f36102f393610f9f600090565b506097610f86565b612082565b610fbe6102f36102f392610f9f600090565b61204b565b637965db0b60e01b6001600160e01b0319821614908115610fe2575090565b6102f391506001600160e01b0319166301ffc9a760e01b1490565b6102f3906104cb565b6102f39054610ffd565b6102f391600061102d61103393611025600090565b506065610f86565b01610887565b611006565b60016110496102f392611025600090565b01610cae565b906102dd9161106561106082611038565b61109d565b906102dd91611079565b906102dd9161104f565b906110956102f361109a9361108e8482611315565b6097610f86565b611dbd565b50565b6102dd903390611195565b6102f39061084a565b60005b8381106110c45750506000910152565b81810151838201526020016110b4565b6105d86110ec926020926110e6815190565b94859290565b938491016110b1565b6111336102f3939261112d61112d937f416363657373436f6e74726f6c3a206163636f756e7420000000000000000000815260170190565b906110d4565b7001034b99036b4b9b9b4b733903937b6329607d1b815260110190565b61117161117a6020936105d893611165815190565b80835293849260200190565b958691016110b1565b601f01601f191690565b60208082526102f392910190611150565b906111a76111a38284611010565b1590565b6111af575050565b61121e916102f36111cb6111c561120594611d90565b926110a8565b6111e06020916111da8361084a565b90611c46565b926111f96111ed60405190565b948593840192836110f5565b90810382520382610582565b6040515b62461bcd60e51b815291829160048301611184565b0390fd5b906102dd9161123361106082611038565b906102dd91611247565b906102dd91611222565b9061125c6102f361109a9361108e848261138e565b611ef8565b1561126857565b60405162461bcd60e51b815260206004820152602f60248201527f416363657373436f6e74726f6c3a2063616e206f6e6c792072656e6f756e636560448201526e103937b632b9903337b91039b2b63360891b6064820152608490fd5b6102dd91906112e66112d633610437565b6001600160a01b03841614611261565b611247565b9060ff905b9181191691161790565b9061130a6102f361131192151590565b82546112eb565b9055565b906113236111a38284611010565b61132b575050565b611346600161134183600061102d876065610f86565b6112fa565b339061137c6113766113767f2f8788117e7eff1d82e926ec794901d17c78024a50270940304540a733656f0d9590565b9261087e565b9261138660405190565b80805b0390a4565b906113998183611010565b6113a1575050565b6113b66000611341838261102d876065610f86565b339061137c6113766113767ff6391f5c32d9c69d2a47ea670b442974b53935d1edc7fd64eb21e047a839171b9590565b156113ed57565b60405162461bcd60e51b815260206004820152603860248201527f555550535570677261646561626c653a206d757374206e6f742062652063616c60448201527f6c6564207468726f7567682064656c656761746563616c6c00000000000000006064820152608490fd5b6102f3906114a96114683061087e565b6114a36001600160a01b037f0000000000000000000000000000000000000000000000000000000000000000165b916001600160a01b031690565b146113e6565b6114d7565b6102f37f360894a13ba1a3210667c828492db98dca3e2076cc3735a920a3ca505d382bbc61084a565b506102f36114ae565b6102f36000611458565b156114f157565b60405162461bcd60e51b815260206004820152602c60248201527f46756e6374696f6e206d7573742062652063616c6c6564207468726f7567682060448201526b19195b1959d85d1958d85b1b60a21b6064820152608490fd5b1561155257565b60405162461bcd60e51b815260206004820152602c60248201527f46756e6374696f6e206d7573742062652063616c6c6564207468726f7567682060448201526b6163746976652070726f787960a01b6064820152608490fd5b6102dd9061161c6115bc3061087e565b6115fb7f0000000000000000000000000000000000000000000000000000000000000000916115f4611496846001600160a01b031690565b14156114ea565b61161661149661160961169e565b926001600160a01b031690565b1461154b565b61165b565b9061162e6105f8836105bc565b918252565b369037565b906102dd61164e61164884611621565b936105bc565b601f190160208401611633565b6102dd906116688161265b565b60009061167c6116778361084a565b611638565b90611768565b6102dd906115ac565b6102f390610437565b6102f3905461168b565b6102f360006116ae6102f36114ae565b01611694565b6102f37f4910fdfa16fed3260ed0e7147f7cc6da11a60208b5b9406d12a635614ffd914361084a565b905051906102dd8261032c565b906020828203126102cb576102f3916116dd565b6040513d6000823e3d90fd5b1561171157565b60405162461bcd60e51b815260206004820152602960248201527f45524331393637557067726164653a20756e737570706f727465642070726f786044820152681a58589b195555525160ba1b6064820152608490fd5b9190611780600061177a6102f36116b4565b01611006565b156117905750506102dd9061190e565b8260206117a76117a26117bf9661087e565b61087e565b6352d1902d906117b660405190565b96879260e01b90565b825260049082905afa60009481611856575b506118325760405162461bcd60e51b815260206004820152602e60248201527f45524331393637557067726164653a206e657720696d706c656d656e7461746960448201526d6f6e206973206e6f74205555505360901b6064820152608490fd5b6118516102dd9461184b6118476102f36114ae565b9190565b1461170a565b611936565b61187891955060203d811161187f575b6118708183610582565b8101906116ea565b93386117d1565b503d611866565b1561188d57565b60405162461bcd60e51b815260206004820152602d60248201527f455243313936373a206e657720696d706c656d656e746174696f6e206973206e60448201526c1bdd08184818dbdb9d1c9858dd609a1b6064820152608490fd5b906001600160a01b03906112f0565b906119076102f36113119261087e565b82546118e8565b6102dd9061192361191e826119ef565b611886565b60006119306102f36114ae565b016118f7565b9161194083611972565b815161194f611847600061084a565b1190811561196a575b50611961575050565b61109a91611a4c565b905038611958565b61197b8161190e565b6119a57fbc7cd75a20ee27fd9adebab32041f755214dbc6bffa90cc0225b39da2e5c2d3b9161087e565b906119af60405190565b600090a2565b906102dd916119c66115bc3061087e565b6102dd916119d38261265b565b600191611768565b906102dd916119b5565b6102f360fb611006565b3b6119fd611847600061084a565b1190565b611a0b6027611621565b7f416464726573733a206c6f772d6c6576656c2064656c65676174652063616c6c6020820152660819985a5b195960ca1b604082015290565b6102f3611a01565b6102f391611a58611a44565b91611a7d565b3d15611a7857611a6d3d611621565b903d6000602084013e565b606090565b6000806102f39493611a8d606090565b50805190602001845af4611a9f611a5e565b91611af1565b15611aac57565b60405162461bcd60e51b815260206004820152601d60248201527f416464726573733a2063616c6c20746f206e6f6e2d636f6e74726163740000006044820152606490fd5b91929015611b2357508151611b09611847600061084a565b14611b12575090565b611b1e6102f3916119ef565b611aa5565b8290611b2d825190565b611b3a611847600061084a565b1115611b495750805190602001fd5b61121e9061120960405190565b634e487b7160e01b600052601160045260246000fd5b81810292918115918404141715611b7f57565b611b56565b91908201809211611b7f57565b634e487b7160e01b600052603260045260246000fd5b90611bb0825190565b811015611bbe570160200190565b611b91565b8015611b7f576000190190565b6104cb6102f36102f39290565b6102f390611bf16118476102f39460ff1690565b901c90565b15611bfd57565b60405162461bcd60e51b81528061121e600482016020808252818101527f537472696e67733a20686578206c656e67746820696e73756666696369656e74604082015260600190565b9190600292611c72611677611c6384611c5e8861084a565b611b6c565b611c6c8761084a565b90611b84565b916000906030611c8a611c848461084a565b86611ba7565b53611cc2611cb9600f60fb1b92611c5e6001998a95871a611cb3611cad8861084a565b8b611ba7565b5361084a565b611c6c8361084a565b905b611ce6575b506102f393945090611ce06118476102f39361084a565b14611bf6565b91611cf08661084a565b831115611d5e576f181899199a1a9b1b9c1cb0b131b232b360811b611d15600f61084a565b8216906010821015611bbe578792611d35611d5292611d58941a60f81b90565b851a611d418789611ba7565b53611d4c6004611bd0565b90611bdd565b93611bc3565b90611cc4565b91611cc9565b6102f39081906001600160a01b031681565b6102f36014611bd0565b6102f36102f36102f39260ff1690565b611dad611da86102f392611da2606090565b50610875565b611d64565b6111da611db8611d76565b611d80565b90611de5611847611de0611da860006102f396611dd8600090565b500194610875565b61084a565b611e82565b8054821015611bbe57611e04600191600052602060002090565b91020190600090565b9160001960089290920291821b911b6112f0565b9190611e306102f36113119390565b908354611e0d565b90815491600160401b8310156105a35782611e5b9160016102dd95018155611dea565b90611e21565b90600019906112f0565b90611e7b6102f36113119261084a565b8254611e61565b611e8f6111a38383611ec8565b15611ec157611ebc91611eb7906001611eb084611eac8482611e38565b5490565b9301610f86565b611e6b565b600190565b5050600090565b611ee6916001611ee192611eda600090565b5001610f86565b610cae565b611ef3611847600061084a565b141590565b90611f13611847611de0611da860006102f396611dd8600090565b611f8c565b91908203918211611b7f57565b634e487b7160e01b600052603160045260246000fd5b6102dd91600091611e21565b80548015611f6a576000190190611f67611f618383611dea565b90611f3b565b55565b611f25565b9190611e306102f36113119361084a565b6102dd91600091611f6f565b90611f9d611ee18260018501610f86565b600092611fa98461084a565b8214611ffc576102f392612002949261200d926120076001978893611fd6611fd08661084a565b82611f18565b88850191611ff4611fe5845490565b611fee8961084a565b90611f18565b828103612012575b50505090565b611f47565b01610f86565b611f80565b611e5b61203b6120439461203261202c611eb79589611dea565b9061089c565b92839188611dea565b888801610f86565b388080611ffc565b61206160006102f39261205c600090565b500190565b60006102f39161206f600090565b50015490565b6104376102f36102f39290565b6120a76120a26102f39361209d60006120ac9561205c600090565b6120b1565b6110a8565b612075565b610875565b6102f391600061202c926120c3600090565b5001611dea565b6102f39060081c6104cb565b6102f390546120ca565b156120e757565b60405162461bcd60e51b815260206004820152602e60248201527f496e697469616c697a61626c653a20636f6e747261637420697320616c72656160448201526d191e481a5b9a5d1a585b1a5e995960921b6064820152608490fd5b6104cb6102f36102f39260ff1690565b9061130a6102f361131192612143565b9061ff009060081b6112f0565b906121806102f361131192151590565b8254612163565b6102f690611bd0565b6020810192916102dd9190612187565b999693909a979491926121f99996936121bc6111a360006120d6565b9c8d9c8d8061229d575b8015612258575b6121d6906120e0565b60019e8f906121ee6121e783611bd0565b6000612153565b612247575b506122e9565b6122005750565b61220b600080612170565b6122427f7f26b83ff96e1f2b6a682f133852f6798a09c465da95921460cefb38474024989161223960405190565b91829182612190565b0390a1565b612252906000612170565b8e6121f3565b5061226d6111a36122683061087e565b6119ef565b80156121cd57506121d66122816000611006565b61229561228e6001611bd0565b9160ff1690565b1490506121cd565b506122a86000611006565b6122b561228e6001611bd0565b106121c6565b6102f390612075565b634e487b7160e01b600052601260045260246000fd5b81156122e4570490565b6122c4565b5095509693979290989550600094612300866122bb565b6001600160a01b0381166001600160a01b038c16149081156124fb575b81156124df575b506124cd5761233161259e565b612339612602565b6123416125be565b61234961259e565b89612352610c01565b9061235c91611065565b6123748a600080516020615dd8833981519152611065565b61238c8a600080516020615df8833981519152611065565b6123959061087e565b966123a2886101916118f7565b6123ab9061087e565b976123b8896101926118f7565b6123c361025861084a565b6123cf9061019f611e6b565b6123dc6301e1338061084a565b6123e8906101a0611e6b565b610197958601906123f891611e6b565b6124058260018701611e6b565b6124129060028601611e6b565b61241f8160038601611e6b565b612429606461084a565b612432916122da565b61243f9060048501611e6b565b61244c9060058401611e6b565b6124599060068301611e6b565b6007019061246691611e6b565b60016101a18161247d63a9059cbb60e01b836104a8565b90612487916112fa565b63095ea7b360e01b612498916104a8565b906124a2916112fa565b7f4ca662a5f1f012e4d740b256559dce10a6b72cdec96be0142f5e2eb49dd37a6e9261137c9061087e565b604051637759ce3f60e01b8152600490fd5b6001600160a01b031690506001600160a01b0389161438612324565b90506001600160a01b0381166001600160a01b038316149061231d565b906102dd9b9a9998979695949392916121a0565b1561253357565b60405162461bcd60e51b815260206004820152602b60248201527f496e697469616c697a61626c653a20636f6e7472616374206973206e6f74206960448201526a6e697469616c697a696e6760a81b6064820152608490fd5b6102dd61259960006120d6565b61252c565b6102dd61258c565b6125b361259960006120d6565b6102dd6102dd6125e2565b6102dd6125a6565b6125d361259960006120d6565b6102dd6102dd600060fb6112fa565b6102dd6125c6565b6125f761259960006120d6565b6102dd6102dd61263b565b6102dd6125ea565b61261761259960006120d6565b6102dd612629565b6102f3600161084a565b6102dd61263461261f565b60c9611e6b565b6102dd61260a565b506102dd600080516020615dd883398151915261109d565b6102dd90612643565b336126806111a382600080516020615df8833981519152611010565b806126f8575b806126d5575b6126c25761269861275f565b6119a57f81990fd9a5c552b8e3677917d8a03c07678f0d2cb68f88b634aca2022e9bd19f9161087e565b6040515b63060a6aeb60e51b8152600490fd5b506126e76104376117a2610192611694565b6001600160a01b038216141561268c565b506127146111a382600080516020615dd8833981519152611010565b612686565b6127216127a6565b6102dd612730600160fb6112fa565b336122427f62e78cea01bee320cd4e420270b5ea74000d11b0c9f74754ebdbfc544b05a25891610b1660405190565b6102dd612719565b1561276e57565b60405162461bcd60e51b815260206004820152601060248201526f14185d5cd8589b194e881c185d5cd95960821b6044820152606490fd5b6102dd6127b46111a36119e5565b612767565b336127d56111a382600080516020615dd8833981519152611010565b80612811575b6126c2576127e761287a565b6119a57f5b65b0c1363b3003db9bcc5e1fd8805a6d6bf5bf6dc9d3431ee4494cd7d117669161087e565b506128236104376117a2610192611694565b6001600160a01b03821614156127db565b61283c6128c5565b6102dd61284b600060fb6112fa565b336122427f5db9ee0a495bf2e6ff9c91a7834c1ba4fdd244a5e8aa4e537bd38aeae4b073aa91610b1660405190565b6102dd612834565b1561288957565b60405162461bcd60e51b815260206004820152601460248201527314185d5cd8589b194e881b9bdd081c185d5cd95960621b6044820152606490fd5b6102dd6128d06119e5565b612882565b90336128f26111a382600080516020615dd8833981519152611010565b9081612907575b506126c2576102dd91612925565b905061291d6114966104376117a2610192611694565b1415386128f9565b90600091612935610437846122bb565b6001600160a01b038316146124cd57600080516020615dd88339815191528082146129a9575b50612966828261123d565b6129a461299a6129947f7c979cc3cab9cb8d7e7656686686502286ec685affa74ac6634a2be36cb68a839390565b9361087e565b9361031960405190565b0390a3565b6129b290610fac565b6129bf611847600161084a565b1180156129e4575b156129d2573861295b565b60405163f0bc4b7360e01b8152600490fd5b506001600160a01b0382163314156129c7565b906102dd916128d5565b9033612a1e6111a382600080516020615dd8833981519152611010565b9081612a33575b506126c2576102dd91612a51565b9050612a496114966104376117a2610192611694565b141538612a25565b90612a5f61043760006122bb565b6001600160a01b038216146124cd57612a78818361106f565b6001916129a461299a6129947f7c979cc3cab9cb8d7e7656686686502286ec685affa74ac6634a2be36cb68a839390565b906102dd91612a01565b9033612ad06111a382600080516020615dd8833981519152611010565b9081612ae5575b506126c2576102dd91612b03565b9050612afb6114966104376117a2610192611694565b141538612ad7565b612b1061043760006122bb565b6001600160a01b038216146124cd578115612b5157612b3d81600080516020615df883398151915261106f565b600080516020615df8833981519152612966565b612b6981600080516020615df883398151915261123d565b612b3d565b906102dd91612ab3565b6102dd93929190612b96600080516020615dd883398151915261109d565b612bfa565b61049b612ba86102f39290565b60e01b90565b612bf26102dd94612be2606094989795612bd9608086019a60008701906001600160e01b0319169052565b15156020850152565b6001600160a01b03166040830152565b019015159052565b90919261224290612c2a6104376000612c1561049b82612b9b565b6001600160e01b0319871603612c83576122bb565b6001600160a01b03861603612c6e575b7fafa2cd5aa57d1ad069bcc204940405dda70a612b4ccb490493786b13a0ee16ad94612c6560405190565b94859485612bae565b612c7e81611341876101a2610887565b612c3a565b612c9387611341886101a16104a8565b6122bb565b906102dd939291612b78565b9033612cc16111a382600080516020615dd8833981519152611010565b9081612cd6575b506126c2576102dd91612d3a565b9050612cec6114966104376117a2610192611694565b141538612cc8565b6102f36000611bd0565b6102f36005611bd0565b6102f36006611bd0565b6102f36007611bd0565b9081526060810193926102dd929091604091610e0c905b6020830152565b612d456104cb612cf4565b60ff821603612dbe57612d5c6102f361019f610cae565b82108015612da8575b612d7457906102dd915b612eb5565b50612d8061019f610cae565b9061121e612d8f6101a0610cae565b604051636ee9a1cb60e01b815293849360048501612d1c565b50612db76102f36101a0610cae565b8211612d65565b90612dca6104cb612cfe565b60ff8316148015612e4e575b8015612e38575b15612e0d57612dec606461084a565b8111612dfb576102dd91612eb5565b604051633c93b60d60e11b8152600490fd5b612e17600061084a565b8114612e26576102dd91612eb5565b604051630f05c93b60e31b8152600490fd5b50612e446104cb612d12565b60ff831614612ddd565b50612e5a6104cb612d08565b60ff831614612dd6565b906102dd91612ca4565b6102f36001611bd0565b6102f36002611bd0565b6102f36003611bd0565b6102f36004611bd0565b60ff90911681526060810193926102dd929091604091610e0c90612d33565b6000612ec26104cb612cf4565b60ff831603612f1a575061019790612ee383612edd84610cae565b93611e6b565b6122427f8504164e5e8ef70117aea5f1895915b866f4d269354e88e147062469f1dc483f93612f1160405190565b93849384612e96565b612f256104cb612e6e565b60ff831603612f45575061019890612f4083612edd84610cae565b612ee3565b612f506104cb612e78565b60ff831603612f6b575061019990612f4083612edd84610cae565b612f766104cb612e82565b60ff831603612f91575061019a90612f4083612edd84610cae565b612f9c6104cb612e8c565b60ff831603612fb7575061019b90612f4083612edd84610cae565b612fc26104cb612cfe565b60ff831603612fdd575061019c90612f4083612edd84610cae565b612fe86104cb612d08565b60ff831603613003575061019d90612f4083612edd84610cae565b9061300f6104cb612d12565b60ff821603612f405761019e9150612f4083612edd84610cae565b8054821015611bbe57611e04601291600052602060002090565b6102f39060101c5b65ffffffffffff1690565b6102f39054613044565b6102f36102f36102f39265ffffffffffff1690565b905051906102dd82610443565b909291926130936105f8826105bc565b938185526020850190828401116102cb576102dd926110b1565b9080601f830112156102cb5781516102f392602001613083565b905051906102dd826107c2565b919060a0838203126102cb576130ea8184613076565b926130f882602083016116dd565b9260408201516001600160401b0381116102cb5761311b846102f39285016130ad565b9361312981606086016116dd565b936080016130c7565b6101936131406102f3825490565b8210156133a657613158916131549161302a565b5090565b8061316a61316582611006565b6133ce565b15613176575050600190565b61318761318283611006565b6133b8565b15613193575050600590565b42916131a66131a182613057565b613061565b8310156131b557505050600090565b600182016131c281610cae565b60028401906131d66118476102f384610cae565b1115918215613366575b5050156131ef57505050600290565b6111a36131fe61320392611006565b6133e0565b1561320f575050600390565b6007019061321c82610cae565b9160009261322f6118476102f38661084a565b0361323d575b505050600490565b82613286916132506117a2610192611694565b613278613261634aae13ca93610cae565b9261326b60405190565b9586948593849360e01b90565b835260048301526024820190565b03915afa8015613336578391849161333b575b50155b92836132b7575b5050506132b257388080613235565b600690565b6132e69192935060206132ce6117a2610192611694565b63a06db7dc906132dd60405190565b94859260e01b90565b825260049082905afa80156133365761330d93611847936102f39392613316575b50611b84565b113880806132a3565b61332f91925060203d811161187f576118708183610582565b9038613307565b6116fe565b61329c925061335c91503d8086833e6133548183610582565b8101906130d4565b9350935050613299565b61338d925090611c6c61337b61338193610cae565b91610cae565b611c6c60038501610cae565b61339e6118476102f3610198610cae565b1038806131e0565b6040516301a96f2f60e51b8152600490fd5b6133c0612e6e565b16611ef361228e6000611bd0565b6133c0612e78565b6102f36008611bd0565b6133c06133d6565b906102f39d9c9b9a9998979695949392916134016127a6565b9061341f9d9c9b9a99989796959493929161341a613f61565b613a8a565b906102dd612629565b9081526040810192916102dd9160200152565b6102f36102a06105a8565b61344e61343b565b9060008252602082016000815260200160008152602001600081526020016000815260200160008152602001600081526020016000815260200160008152602001600081526020016000815260200160608152602001600081526020016060815260200160008152602001600081526020016000815260200160008152602001600081526020016000815260200160009052565b6102f3613446565b60081115610b4d57565b906102dd826134ea565b906102f6906134f4565b61304c6102f36102f39290565b6102f39136916105e8565b634e487b7160e01b600052600060045260246000fd5b6102f390516134f4565b6102f3906134f4565b906121806102f361131192613540565b9067ffffffffffff00009060101b6112f0565b61304c6102f36102f39265ffffffffffff1690565b906135916102f36113119261356c565b8254613559565b906dffffffffffff00000000000000009060401b6112f0565b906135c16102f36113119261356c565b8254613598565b90611e7b6102f36113119290565b634e487b7160e01b600052602260045260246000fd5b906001600283049216801561360c575b602083101461360757565b6135d6565b91607f16916135fc565b818110613621575050565b8061362f6000600193611f80565b01613616565b9190601f811161364457505050565b6136566102dd93600052602060002090565b906020601f840181900483019310613678575b6020601f909101040190613616565b9091508190613669565b9061368b815190565b906001600160401b0382116105a3576136ae826136a885546135ec565b85613635565b602090601f83116001146136e9576113119291600091836136de575b5050600019600883021c1916906002021790565b0151905038806136ca565b601f198316916136fe85600052602060002090565b9260005b81811061373d57509160029391856001969410613723575b50505002019055565b01516000196008601f8516021c19165b905538808061371a565b91936020600181928787015181550195019201613702565b906102dd91613682565b90613768815190565b906001600160401b0382116105a357613785826136a885546135ec565b602090601f83116001146137b4576113119291600091836136de575050600019600883021c1916906002021790565b601f198316916137c985600052602060002090565b9260005b8181106137ed575091600293918560019694106137235750505002019055565b919360206001819287870151815501950192016137cd565b906102dd9161375f565b6102dd919061388e906102809060119061387c81613837613831885160ff1690565b82612153565b61384c61384660208901613536565b82613549565b613868613862604089015165ffffffffffff1690565b82613581565b606087015165ffffffffffff165b906135b1565b6138946001820161388e608088015190565b90611e6b565b6138a66002820161388e60a088015190565b6138b86003820161388e60c088015190565b6138d9600482016138d360e08801516001600160a01b031690565b906118f7565b6138ec6005820161388e61010088015190565b6138ff6006820161388e61012088015190565b6139186007820161391261014088015190565b906135c8565b6139316008820161392b61016088015190565b90613755565b61394d600982016138d36101808801516001600160a01b031690565b613966600a82016139606101a088015190565b90613805565b613982600b82016138d36101c08801516001600160a01b031690565b613995600c820161388e6101e088015190565b6139b1600d82016138d36102008801516001600160a01b031690565b6139c4600e820161388e61022088015190565b6139d7600f820161388e61024088015190565b6139ea6010820161388e61026088015190565b0192015190565b9190613a00576102dd9161380f565b613520565b90815491600160401b8310156105a35782613a289160016102dd9501815561302a565b906139f1565b906020828203126102cb576102f3916130c7565b6001600160a01b039182168152911660208201526060810192916102dd9160400152565b6102f690613540565b9160206102dd929493610e0c60408201966000830190613a66565b9c9498919c9b959799929b9a9396909a50613aa96117a2610191611694565b6370a082316020613ab960405190565b8093613ac58460e01b90565b825233600483015260249082905afa91821561333657600092613ed4575b5061019a91613af76118476102f385610cae565b10613e44575050610193549c613b0b6134e2565b3360e08201529b613b1f8e60208f016134fe565b8c42613b2c610197610cae565b613b369082611b84565b613b3f90613508565b65ffffffffffff166040830152613b5590613508565b65ffffffffffff166060909101528c613b6f61019b610cae565b613b7a916101200152565b6101608d0191613b8991613515565b9052613b96610191611694565b613b9f9061087e565b631504d8f090613bae60405190565b60e09290921b8252816004815a602094600091f1801561333657613bdd91600091613e26575b506101008d0152565b6000998c613bf3613bed8d6134f4565b916134f4565b03613d68575050505050505090613c1a613c25926101808701906001600160a01b03169052565b6101a0850192613515565b90525b613c3482610193613a05565b613c426117a2610191611694565b602063e4b797c191613c533061087e565b90613c7d85613c6361019b610cae565b95613c89613c7060405190565b9788968795869460e01b90565b84523360048501613a42565b03925af190811561333657613ca39291613d40575b501590565b613d2e57613ce6613cda92613cc2610100613cbc612cf4565b94015190565b90613ccc60405190565b948592602084019283613a6f565b90810382520383610582565b600080516020615db883398151915290613d08613d028561084a565b91612143565b91613d28613d153361087e565b94613d1f60405190565b91829182611184565b0390a490565b604051636ca06a8960e01b8152600490fd5b6111a3915060203d8111613d61575b613d598183610582565b810190613a2e565b503d613d4f565b92959850929550929550613d7c60036134f4565b613d858b6134f4565b03613dc15750505092613dac613db492613da4613dbc966102208a0152565b610240880152565b610260860152565b610280840152565b613c28565b909350613dd9919550613df29450613dea925061087e565b6001600160a01b03166101c0870152565b6101e0850152565b613dfc60046134f4565b613e05856134f4565b14613e11575b50613c28565b6001600160a01b031661020083015238613e0b565b613e3e915060203d811161187f576118708183610582565b38613bd4565b906020613e6192613e596117a2610191611694565b6040516132dd565b82523360048301528180602481015b03915afa91821561333657600092613eb0575b50613e8d90610cae565b9061121e613e9a60405190565b6303c00c4760e41b815292839260048401613428565b613e8d919250613ecd9060203d811161187f576118708183610582565b9190613e83565b613eed91925060203d811161187f576118708183610582565b9038613ae3565b6102f39c9b9a9998979695949392919060006133e8565b6102f3600261084a565b15613f1c57565b60405162461bcd60e51b815260206004820152601f60248201527f5265656e7472616e637947756172643a207265656e7472616e742063616c6c006044820152606490fd5b6102dd613f6e60c9610cae565b612634613f79613f0b565b91821415613f15565b906102f39291613f906127a6565b9061341f9291613f9e613f61565b614087565b8054600160401b8110156105a357610ee49160018201815561302a565b91906001600160401b0382116105a357613fde826136a885546135ec565b600090601f83116001146140185761131192916000918361400d575050600019600883021c1916906002021790565b0135905038806136ca565b601f1983169161402d85600052602060002090565b92815b818110614064575091600293918560019694106140505750505002019055565b0135600019601f84166008021c1916613733565b91936020600181928787013581550195019201614030565b906102dd9291613fc0565b506000826140976118478361084a565b1461436c576140aa6117a2610191611694565b906370a0823192339260206140be60405190565b80926140ca8860e01b90565b82526001600160a01b038716600483015260249082905afa90811561333657839161434e575b506101979461019a916141086118476102f385610cae565b106142f9575050906141499161019395614120875490565b9660206141316117a2610191611694565b631504d8f09061414060405190565b97889260e01b90565b8252600490829088905af19485156133365784956142c0575b506141f4916141ec61417e61315461417960059590565b613fa3565b9161418c89600485016118f7565b600460079a6141cc8c6141a28b88019182613549565b6138768b6141c16141c66141c16141bb42948901610cae565b84611b84565b613508565b84613581565b01956141e36141da88610cae565b60068601611e6b565b6008840161407c565b019384611e6b565b60206142046117a2610191611694565b9163e4b797c19261422e8561422161421b3061087e565b94610cae565b9561423a613c7060405190565b84528c60048501613a42565b03925af1908115613336576142539291613d4057501590565b613d2e576142936142879361426f614269612cf4565b93610cae565b9061427960405190565b958692602084019283613a6f565b90810382520384610582565b600080516020615db8833981519152613d28613d156142ba6142b48861084a565b94612143565b9461087e565b6005919550916141ec61417e6131546141796142ec6141f49760203d811161187f576118708183610582565b9995505050505091614162565b90614334602086869461431d6143136117a2610191611694565b9161326b60405190565b83526001600160a01b031660048301526024820190565b03915afa9283156133365792613eb05750613e8d90610cae565b614366915060203d811161187f576118708183610582565b386140f0565b6040516330f3ade560e01b8152600490fd5b6102f391906000613f82565b6101936143986102f3825490565b8210156133a6576143b861316560006143b1858561302a565b5001611006565b6143ed5761318260006143b1846143ce9461302a565b6143db576102dd906143ff565b60405163f614c9db60e01b8152600490fd5b60405163064063af60e41b8152600490fd5b6126179061440b613f61565b61441a6131548261019361302a565b339061442b61043760048301611694565b6001600160a01b038316036146095761444660018201610cae565b6000906144556118478361084a565b141580156145e9575b80156145c9575b6145b75761447b6118476131a142938501613057565b10156145a5575b8061448f6131fe82611006565b80614581575b614501575b6144b691506144b06144ab82611006565b61463a565b90612153565b6144be612e6e565b6144e26113766144dc600080516020615db88339815191529561084a565b92612143565b926144ec60405190565b60208082526000908201528060408101611389565b61450f6117a2610192611694565b9161452160076370ba33399201610cae565b833b156102cb57614549936132786000809461453c60405190565b9788958694859360e01b90565b03925af1918215613336576144b692614563575b5061449a565b61457b9060006145738183610582565b810190610405565b3861455d565b5061458e60078301610cae565b61459e6118476102f3600061084a565b1415614495565b604051635450294f60e01b8152600490fd5b6040516342f5575d60e01b8152600490fd5b506145d660038301610cae565b6145e26118478361084a565b1415614465565b506145f660028301610cae565b6146026118478361084a565b141561445e565b6146246111a383600080516020615df8833981519152611010565b15614482576040516126c6565b6102dd9061438a565b614642612e78565b1790565b906102f392916146546127a6565b91906101936146646102f3825490565b8210156133a65761467d61316560006143b1858561302a565b6143ed5761318260006143b1846146939461302a565b6143db576102f39261472f565b6001600160a01b0390911681526040810192916102dd9160200152565b916001600160a01b0360089290920291821b911b6112f0565b91906146e76102f36113119361087e565b9083546146bd565b90815491600160401b8310156105a357826147129160016102dd95018155611dea565b906146d6565b60ff90911681526040810192916102dd9160200152565b5060029161473c83611bd0565b60ff8216116149a157610196916147538184610857565b90614762611033338094610887565b6145b7576147756131548261019361302a565b61477e42613508565b61479961478d61304c84613057565b9165ffffffffffff1690565b116145a5576147ea9560206147b26117a2610191611694565b639371672e906147de6147c760058701610cae565b926147d160405190565b9b8c948593849360e01b90565b83528a600484016146a0565b03915afa96871561333657600097614981575b5060009561480a8761084a565b881461496f5761489d9661484b9161482c8a611eb7896108bd8a610194610857565b6148406111a3611033896108bd8a86610857565b61493d575b50611bd0565b60ff8616036148fc5761486b910161388e8761486683610cae565b611b84565b6148957fb83d25c6a5d258561330739951487acb4bd09ba5190b5d32c4f261817d9067929161084a565b93849261087e565b9384916148a960405190565b806148b5898883614718565b0390a360066148d76148c660405190565b809461428788602084019283614718565b613d286148f2600080516020615db883398151915292611bd0565b93613d1f60405190565b50600161490881611bd0565b60ff86160361492857614923910161388e8761486683610cae565b61486b565b506003614923910161388e8761486683610cae565b61495190611341886108bd89600194610857565b614969866149646102f388610195610857565b6146ef565b38614845565b604051635e289e7160e11b8152600490fd5b61499a91975060203d811161187f576118708183610582565b95386147fd565b604051630683be3360e51b8152600490fd5b6102f391906000614646565b6102dd906149cb6127a6565b6101936149d96102f3825490565b8210156133a6576149f261316560006143b1858561302a565b6143ed5761318260006143b184614a089461302a565b6143db576102dd9061261790614a1c613f61565b614adf565b61049b612ba86102f39263ffffffff1690565b9194614a86614a8d92989795614a7660a096614a666102dd9a614a5c60c08a019e60008b0152565b6020890190613a66565b6001600160a01b03166040870152565b6001600160a01b03166060850152565b6080830152565b01906001600160a01b03169052565b6102f69061084a565b614ad26102f3949293614ac8606084019560008501906001600160a01b03169052565b6020830190614a9c565b6040818403910152611150565b614aed6117a2610191611694565b6370a082319033916020614b0060405190565b8093614b0c8460e01b90565b82526001600160a01b038616600483015260249082905afa91821561333657600092614d6b575b5061019a91614b476118476102f385610cae565b10614d3c575050614b5782613132565b614b6a614b646003610b52565b91610b52565b03614d2a5781614b8161315460049461019361302a565b614c0d81614b99613831614b9483611006565b614d94565b614bfe614bb2614bac63b8096599614a21565b926120d6565b614bbe60098601611694565b614bca600b8701611694565b614bd6600c8801610cae565b91614be3600d8901611694565b9389614bee60405190565b9c8d9860208a0190815201614a34565b60208201810382520385610582565b614c5c6020614c206117a2610192611694565b9563d0bf1cbb96614c51614c333061087e565b926000998a968792614c4460405190565b9889978896879560e01b90565b855260048501614aa5565b03925af19485156133365794614d03575b50836007614c7b92016135c8565b614ca57f698a777b9614d463e4ad86ac0dc09595c1ae579ca661dd1cb09391857175404a9161084a565b90818491614cb260405190565b600090a3614cbe612e78565b614ce5614cca60405190565b60208101958652948590604082015b90810382520385610582565b611389613d156142ba600080516020615db883398151915293612143565b6007945090614d22614c7b9260203d811161187f576118708183610582565b945090614c6d565b604051639f333b1160e01b8152600490fd5b613e709260209161431d614d546117a2610191611694565b91614d5e60405190565b9687948593849360e01b90565b614d8491925060203d811161187f576118708183610582565b9038614b33565b6102dd906149bf565b6146426133d6565b6102dd90614da86127a6565b61261790614db4613f61565b614dee565b906020828203126102cb5781516001600160401b0381116102cb576102f392016130ad565b6020810192916102dd9190613a66565b614dfc6117a2610191611694565b6370a082319033916020614e0f60405190565b8093614e1b8460e01b90565b82526001600160a01b038616600483015260249082905afa91821561333657600092615066575b5061019a91614e566118476102f385610cae565b10614d3c575050610193614e6b6102f3825490565b8310156133a65761315483614e7f9261302a565b80614e8c61318282611006565b61506057613165614e9c91611006565b6143ed57614ea983613132565b90600491614eb9614b6484610b52565b036150415760078101614ecb81610cae565b92600093614ede6118476102f38761084a565b1461502257614f166020614ef66117a2610192611694565b63f2b0653790614f0861326187610cae565b835288830190815260200190565b03915afa801561333657614f2f918691613d4057501590565b615003578390614f436117a2610192611694565b614f6283614f5563c69ed5f296610cae565b95614f6f613c7060405190565b8452830190815260200190565b03925af1801561333657614fe3575b5001614f94613831614f8f83611006565b61508f565b614fa5614f9f612e82565b916120d6565b92614fc2614fb260405190565b8095614cd9602083019182614dde565b611389613d156142ba6142b4600080516020615db88339815191529461084a565b614ffe903d8085833e614ff68183610582565b810190614db9565b614f7e565b61121e9061501060405190565b632d22b5ef60e11b8152918291820190565b61121e9061502f60405190565b635fcceb2160e11b8152918291820190565b61121e8261504e60405190565b63c2ab8d8560e01b8152918291820190565b50505050565b61507f91925060203d811161187f576118708183610582565b9038614e42565b6102dd90614d9c565b614642612e6e565b929094915033936150af6104376117a2610192611694565b6001600160a01b038616036126c2576101936150cc6102f3825490565b8510156133a657613154856150e09261302a565b928392906150f36111a36131fe86611006565b6153e65761510160026134f4565b61510a896134f4565b03615310575060009161511f610437846122bb565b6001600160a01b038316146124cd576151378361084a565b8114612e265760209061514e6117a2610191611694565b61516d8563e4b797c16151786151633061087e565b95614c4460405190565b855260048501613a42565b03925af1908115613336576151919291613d4057501590565b613d2e575b6151ab6151a5614f8f84611006565b83612153565b6151bf6111a36151ba84611006565b6155e2565b6151db575b50506151ce612e82565b90614fc2614fb260405190565b615210906151ed6117a2610191611694565b60206370a082316151fd3061087e565b9261520760405190565b95869260e01b90565b82526001600160a01b038416600483015260249082905afa928315613336576000936152f0575b50600682019261524c6118476102f386610cae565b101561525a575b50506151c4565b60209161516d60006152706117a2610191611694565b9261529661528e615288600463e4b797c19401611694565b98610cae565b604051614c44565b03925af1908115613336576000916152d2575b506152b7575b808080615253565b806144b06152c76152cc93611006565b6155ea565b386152af565b6152ea915060203d8111613d6157613d598183610582565b386152a9565b61530991935060203d811161187f576118708183610582565b9138615237565b600461531b816134f4565b6153248a6134f4565b036153d9576000615334816122bb565b906001600160a01b0382166001600160a01b038616146153cc576153579061084a565b85146153ad576001600160a01b03166001600160a01b0383161461538e575090615384615389939261087e565b6153f8565b615196565b61121e9061539b60405190565b637759ce3f60e01b8152918291820190565b61121e826153ba60405190565b630f05c93b60e31b8152918291820190565b61121e8361539b60405190565b5050505061538983615691565b60405163c2ab8d8560e01b8152600490fd5b61543b60049261542c6102dd9561541263a9059cbb614a21565b9261541c60405190565b96879460208601908152016146a0565b60208201810382520383610582565b6154da565b61544a6020611621565b7f5361666545524332303a206c6f772d6c6576656c2063616c6c206661696c6564602082015290565b6102f3615440565b1561548257565b60405162461bcd60e51b815260206004820152602a60248201527f5361666545524332303a204552433230206f7065726174696f6e20646964206e6044820152691bdd081cdd58d8d9595960b21b6064820152608490fd5b6102dd916154ea6154f99261087e565b906154f3615473565b91615537565b8051615508611847600061084a565b14908115615517575b5061547b565b61553191506020615526825190565b818301019101613a2e565b38615511565b6102f39291615546600061084a565b916155a7565b1561555357565b60405162461bcd60e51b815260206004820152602660248201527f416464726573733a20696e73756666696369656e742062616c616e636520666f6044820152651c8818d85b1b60d21b6064820152608490fd5b9060006102f3949381926155b9606090565b506155d06155c63061087e565b839031101561554c565b60208101905191855af1611a9f611a5e565b6133c0612e8c565b614642612e8c565b80546000939291615609615605836135ec565b9390565b916001811690811561565a575060011461562257505050565b6156359192939450600052602060002090565b6000905b8382106156465750500190565b600181602092548486015201910190615639565b60ff191683525050811515909102019150565b6102f3916155f2565b6702330b4b632b21d160c51b81526102f3919060080161112d565b6156a06131548261019361302a565b6156a9816120d6565b6000906156b5826134f4565b6156be826134f4565b141580615af5575b80615ada575b6158a4575b6156da826134f4565b6156e3826134f4565b036157b55750600982016156f681611694565b92615700836122bb565b936157136001600160a01b038616611496565b146124cd5761573c83600a6157288295611694565b930161573360405190565b9283918261566d565b03925af19161575161574c611a5e565b931590565b61575a57505050565b615762612e82565b9061577f61576f60405190565b8095614cd9602083019182615676565b6157a0613d156142ba6142b4600080516020615db88339815191529461084a565b0390a460405163097e7a4b60e11b8152600490fd5b909192506157c6613bed60036134f4565b146157cf575050565b615842906157df600f8401610cae565b926157ec60108201610cae565b6157fd600e610d1860118501610cae565b946158078461084a565b8111615892575b5061581d6102f361019f610cae565b8110158061587b575b615869575b506158358261084a565b8111615857575b5061084a565b811161584b5750565b6102dd90612d6f612e82565b61586390612d6f612e78565b3861583c565b61587590612d6f612cf4565b3861582b565b5061588a6102f36101a0610cae565b811115615826565b61589e90612d6f612e6e565b3861580e565b6158b0600b8401611694565b6158bc600c8501610cae565b6158c5846122bb565b916001600160a01b0383166001600160a01b038216146124cd576158e88561084a565b8214612e26576158f860016134f4565b615901856134f4565b14615a925761591060026134f4565b615919856134f4565b14615a465760049261592a846134f4565b615933866134f4565b14615a14575061594360056134f4565b61594c856134f4565b146159e75761595b60066134f4565b615964856134f4565b14615971575050506156d1565b919550929350602091506159896117a2610191611694565b61599e8563a89ae7d06159a8613c7060405190565b84528b84016146a0565b03925af1908115613336576159c19291613d4057501590565b6159c85750565b61121e906159d560405190565b636ca06a8960e01b8152918291820190565b919550929350602091506159ff6117a2610191611694565b61599e8563dd329b5c6159a8613c7060405190565b979650935093600d9192500194615a3061149661160988611694565b1461538e57506153846117a26102dd9495611694565b94509150506020919350615a5e6117a2610191611694565b61516d8563e4b797c1615a736151633061087e565b03925af190811561333657615a8c9291613d4057501590565b613d2e57565b9394509594505050615aa33061087e565b84813110615acb57508190615a8c9394615abc60405190565b90818003925af1613c9e611a5e565b84903161121e613e9a60405190565b50615ae560076134f4565b615aee826134f4565b14156156cc565b50615b0060036134f4565b615b09826134f4565b14156156c6565b61261790615b1c613f61565b610193615b2a6102f3825490565b8210156133a65761315482615b3e9261302a565b6004810133615b5261149661043784611694565b03615d1e5781615b646151ba82611006565b615d0c57615b7184613132565b615b7b6002610b52565b615b8482610b52565b03615c825750615bad615b9c6006615bbd9301610cae565b615ba761019c610cae565b90611b6c565b615bb7606461084a565b906122da565b92615bd7615bc9612e6e565b935b6144b06152c782611006565b615be56117a2610191611694565b602063e4b797c191615bf63061087e565b9061516d6000615c0588611694565b95615c138b614c4460405190565b03925af1801561333657615c2d91600091613d4057501590565b613d2e57615c5b614cd994615c43600594611694565b94615c4d60405190565b968792602084019283614718565b611389613d156142ba615c7c600080516020615db88339815191529461084a565b94611bd0565b615c8c6001610b52565b615c9582610b52565b03615cca5750615bad615cad6006615cb89301610cae565b615ba761019d610cae565b92615bd7615cc4612e6e565b93615bcb565b600690615cd9614b6483610b52565b03615cfa57615cef615bad91615cb89301610cae565b615ba761019e610cae565b6040516313846c3160e11b8152600490fd5b604051630a46384960e11b8152600490fd5b604051631ce3ff3360e01b8152600490fd5b6102dd90615b10565b90610193615d486102f3825490565b8310156133a65761315483615d5c9261302a565b91615d6960018401610cae565b615d816003615d7a60028701610cae565b9501610cae565b92615d9f611eac615d96866148668987611b84565b94610195610857565b919493929190565b6102dd6127a6565b6102dd615da756fe54b806ba9fbc09bfb093dba20b75f7df5ed2e3d53fa9c33bb73ca923d4314869a49807205ce4d355092ef5a8a18f56e8913cf4a201fbe287825b095693c2177555435dd261a4b9b3364963f7738a7a662ad9c84396d64be3365284bb7f0a5041a164736f6c6343000814000a",
  "linkReferences": {},
  "deployedLinkReferences": {}
}