{
  "_format": "hh-sol-artifact-1",
  "contractName": "JustTimelockUpgradeable",
  "sourceName": "contracts/JustTimelockUpgradeable.sol",
  "abi": [
    {
      "inputs": [
        {
          "internalType": "bytes32",
          "name": "txHash",
          "type": "bytes32"
        }
      ],
      "name": "AlreadyCanceled",
      "type": "error"
    },
    {
      "inputs": [
        {
          "internalType": "address",
          "name": "target",
          "type": "address"
        },
        {
          "internalType": "bytes",
          "name": "data",
          "type": "bytes"
        }
      ],
      "name": "CallFailed",
      "type": "error"
    },
    {
      "inputs": [],
      "name": "DelayHierarchyViolation",
      "type": "error"
    },
    {
      "inputs": [
        {
          "internalType": "uint256",
          "name": "provided",
          "type": "uint256"
        },
        {
          "internalType": "uint256",
          "name": "maximum",
          "type": "uint256"
        }
      ],
      "name": "DelayTooLong",
      "type": "error"
    },
    {
      "inputs": [
        {
          "internalType": "uint256",
          "name": "provided",
          "type": "uint256"
        },
        {
          "internalType": "uint256",
          "name": "minimum",
          "type": "uint256"
        }
      ],
      "name": "DelayTooShort",
      "type": "error"
    },
    {
      "inputs": [],
      "name": "InvalidParams",
      "type": "error"
    },
    {
      "inputs": [
        {
          "internalType": "address",
          "name": "caller",
          "type": "address"
        }
      ],
      "name": "NoTokenHolding",
      "type": "error"
    },
    {
      "inputs": [
        {
          "internalType": "address",
          "name": "caller",
          "type": "address"
        },
        {
          "internalType": "bytes32",
          "name": "role",
          "type": "bytes32"
        }
      ],
      "name": "NotAuthorized",
      "type": "error"
    },
    {
      "inputs": [
        {
          "internalType": "bytes32",
          "name": "txHash",
          "type": "bytes32"
        },
        {
          "internalType": "uint256",
          "name": "eta",
          "type": "uint256"
        },
        {
          "internalType": "uint256",
          "name": "gracePeriod",
          "type": "uint256"
        },
        {
          "internalType": "uint256",
          "name": "currentTime",
          "type": "uint256"
        }
      ],
      "name": "TransactionNotExpired",
      "type": "error"
    },
    {
      "inputs": [
        {
          "internalType": "bytes32",
          "name": "txHash",
          "type": "bytes32"
        }
      ],
      "name": "TransactionNotPreviouslyFailed",
      "type": "error"
    },
    {
      "inputs": [
        {
          "internalType": "bytes32",
          "name": "txHash",
          "type": "bytes32"
        }
      ],
      "name": "TxAlreadyExecuted",
      "type": "error"
    },
    {
      "inputs": [
        {
          "internalType": "bytes32",
          "name": "txHash",
          "type": "bytes32"
        }
      ],
      "name": "TxAlreadyQueued",
      "type": "error"
    },
    {
      "inputs": [
        {
          "internalType": "bytes32",
          "name": "txHash",
          "type": "bytes32"
        },
        {
          "internalType": "uint256",
          "name": "eta",
          "type": "uint256"
        },
        {
          "internalType": "uint256",
          "name": "gracePeriod",
          "type": "uint256"
        },
        {
          "internalType": "uint256",
          "name": "currentTime",
          "type": "uint256"
        }
      ],
      "name": "TxExpired",
      "type": "error"
    },
    {
      "inputs": [
        {
          "internalType": "bytes32",
          "name": "txHash",
          "type": "bytes32"
        }
      ],
      "name": "TxNotQueued",
      "type": "error"
    },
    {
      "inputs": [
        {
          "internalType": "bytes32",
          "name": "txHash",
          "type": "bytes32"
        },
        {
          "internalType": "uint256",
          "name": "eta",
          "type": "uint256"
        },
        {
          "internalType": "uint256",
          "name": "currentTime",
          "type": "uint256"
        }
      ],
      "name": "TxNotReady",
      "type": "error"
    },
    {
      "inputs": [
        {
          "internalType": "string",
          "name": "param",
          "type": "string"
        }
      ],
      "name": "ZeroAddress",
      "type": "error"
    },
    {
      "inputs": [],
      "name": "ZeroDelay",
      "type": "error"
    },
    {
      "anonymous": false,
      "inputs": [
        {
          "indexed": true,
          "internalType": "address",
          "name": "target",
          "type": "address"
        },
        {
          "indexed": false,
          "internalType": "enum JustTimelockUpgradeable.ThreatLevel",
          "name": "level",
          "type": "uint8"
        }
      ],
      "name": "AddressThreatLevelSet",
      "type": "event"
    },
    {
      "anonymous": false,
      "inputs": [
        {
          "indexed": false,
          "internalType": "address",
          "name": "previousAdmin",
          "type": "address"
        },
        {
          "indexed": false,
          "internalType": "address",
          "name": "newAdmin",
          "type": "address"
        }
      ],
      "name": "AdminChanged",
      "type": "event"
    },
    {
      "anonymous": false,
      "inputs": [
        {
          "indexed": true,
          "internalType": "address",
          "name": "beacon",
          "type": "address"
        }
      ],
      "name": "BeaconUpgraded",
      "type": "event"
    },
    {
      "anonymous": false,
      "inputs": [
        {
          "indexed": true,
          "internalType": "address",
          "name": "admin",
          "type": "address"
        },
        {
          "indexed": false,
          "internalType": "uint256",
          "name": "minDelay",
          "type": "uint256"
        }
      ],
      "name": "ContractInitialized",
      "type": "event"
    },
    {
      "anonymous": false,
      "inputs": [
        {
          "indexed": true,
          "internalType": "address",
          "name": "guardian",
          "type": "address"
        }
      ],
      "name": "ContractPaused",
      "type": "event"
    },
    {
      "anonymous": false,
      "inputs": [
        {
          "indexed": true,
          "internalType": "address",
          "name": "guardian",
          "type": "address"
        }
      ],
      "name": "ContractUnpaused",
      "type": "event"
    },
    {
      "anonymous": false,
      "inputs": [
        {
          "indexed": false,
          "internalType": "uint256",
          "name": "newMinDelay",
          "type": "uint256"
        },
        {
          "indexed": false,
          "internalType": "uint256",
          "name": "newMaxDelay",
          "type": "uint256"
        },
        {
          "indexed": false,
          "internalType": "uint256",
          "name": "newGracePeriod",
          "type": "uint256"
        }
      ],
      "name": "DelaysUpdated",
      "type": "event"
    },
    {
      "anonymous": false,
      "inputs": [
        {
          "indexed": false,
          "internalType": "uint256",
          "name": "newThreshold",
          "type": "uint256"
        }
      ],
      "name": "ExecutorThresholdUpdated",
      "type": "event"
    },
    {
      "anonymous": false,
      "inputs": [
        {
          "indexed": true,
          "internalType": "bytes32",
          "name": "txHash",
          "type": "bytes32"
        },
        {
          "indexed": true,
          "internalType": "address",
          "name": "target",
          "type": "address"
        },
        {
          "indexed": false,
          "internalType": "uint256",
          "name": "value",
          "type": "uint256"
        },
        {
          "indexed": false,
          "internalType": "bytes",
          "name": "data",
          "type": "bytes"
        }
      ],
      "name": "ExpiredTransactionExecuted",
      "type": "event"
    },
    {
      "anonymous": false,
      "inputs": [
        {
          "indexed": true,
          "internalType": "bytes32",
          "name": "txHash",
          "type": "bytes32"
        },
        {
          "indexed": true,
          "internalType": "address",
          "name": "target",
          "type": "address"
        },
        {
          "indexed": false,
          "internalType": "uint256",
          "name": "value",
          "type": "uint256"
        },
        {
          "indexed": false,
          "internalType": "bytes",
          "name": "data",
          "type": "bytes"
        }
      ],
      "name": "FailedTransactionRetried",
      "type": "event"
    },
    {
      "anonymous": false,
      "inputs": [
        {
          "indexed": true,
          "internalType": "bytes4",
          "name": "selector",
          "type": "bytes4"
        },
        {
          "indexed": false,
          "internalType": "enum JustTimelockUpgradeable.ThreatLevel",
          "name": "level",
          "type": "uint8"
        }
      ],
      "name": "FunctionThreatLevelSet",
      "type": "event"
    },
    {
      "anonymous": false,
      "inputs": [
        {
          "indexed": true,
          "internalType": "address",
          "name": "account",
          "type": "address"
        },
        {
          "indexed": false,
          "internalType": "bool",
          "name": "isGranted",
          "type": "bool"
        }
      ],
      "name": "GovernanceRoleChanged",
      "type": "event"
    },
    {
      "anonymous": false,
      "inputs": [
        {
          "indexed": true,
          "internalType": "address",
          "name": "oldGovernance",
          "type": "address"
        },
        {
          "indexed": true,
          "internalType": "address",
          "name": "newGovernance",
          "type": "address"
        }
      ],
      "name": "GovernanceRoleTransferred",
      "type": "event"
    },
    {
      "anonymous": false,
      "inputs": [
        {
          "indexed": false,
          "internalType": "uint8",
          "name": "version",
          "type": "uint8"
        }
      ],
      "name": "Initialized",
      "type": "event"
    },
    {
      "anonymous": false,
      "inputs": [
        {
          "indexed": true,
          "internalType": "address",
          "name": "tokenAddress",
          "type": "address"
        }
      ],
      "name": "JustTokenSet",
      "type": "event"
    },
    {
      "anonymous": false,
      "inputs": [
        {
          "indexed": false,
          "internalType": "address",
          "name": "account",
          "type": "address"
        }
      ],
      "name": "Paused",
      "type": "event"
    },
    {
      "anonymous": false,
      "inputs": [
        {
          "indexed": true,
          "internalType": "bytes32",
          "name": "role",
          "type": "bytes32"
        },
        {
          "indexed": true,
          "internalType": "bytes32",
          "name": "previousAdminRole",
          "type": "bytes32"
        },
        {
          "indexed": true,
          "internalType": "bytes32",
          "name": "newAdminRole",
          "type": "bytes32"
        }
      ],
      "name": "RoleAdminChanged",
      "type": "event"
    },
    {
      "anonymous": false,
      "inputs": [
        {
          "indexed": true,
          "internalType": "bytes32",
          "name": "role",
          "type": "bytes32"
        },
        {
          "indexed": true,
          "internalType": "address",
          "name": "account",
          "type": "address"
        },
        {
          "indexed": true,
          "internalType": "address",
          "name": "sender",
          "type": "address"
        }
      ],
      "name": "RoleGranted",
      "type": "event"
    },
    {
      "anonymous": false,
      "inputs": [
        {
          "indexed": true,
          "internalType": "bytes32",
          "name": "role",
          "type": "bytes32"
        },
        {
          "indexed": true,
          "internalType": "address",
          "name": "account",
          "type": "address"
        }
      ],
      "name": "RoleGranted",
      "type": "event"
    },
    {
      "anonymous": false,
      "inputs": [
        {
          "indexed": true,
          "internalType": "bytes32",
          "name": "role",
          "type": "bytes32"
        },
        {
          "indexed": true,
          "internalType": "address",
          "name": "account",
          "type": "address"
        },
        {
          "indexed": true,
          "internalType": "address",
          "name": "sender",
          "type": "address"
        }
      ],
      "name": "RoleRevoked",
      "type": "event"
    },
    {
      "anonymous": false,
      "inputs": [
        {
          "indexed": true,
          "internalType": "bytes32",
          "name": "role",
          "type": "bytes32"
        },
        {
          "indexed": true,
          "internalType": "address",
          "name": "account",
          "type": "address"
        }
      ],
      "name": "RoleRevoked",
      "type": "event"
    },
    {
      "anonymous": false,
      "inputs": [
        {
          "indexed": false,
          "internalType": "uint256",
          "name": "lowDelay",
          "type": "uint256"
        },
        {
          "indexed": false,
          "internalType": "uint256",
          "name": "mediumDelay",
          "type": "uint256"
        },
        {
          "indexed": false,
          "internalType": "uint256",
          "name": "highDelay",
          "type": "uint256"
        }
      ],
      "name": "ThreatLevelDelaysUpdated",
      "type": "event"
    },
    {
      "anonymous": false,
      "inputs": [
        {
          "indexed": true,
          "internalType": "bytes32",
          "name": "txHash",
          "type": "bytes32"
        }
      ],
      "name": "TransactionCanceled",
      "type": "event"
    },
    {
      "anonymous": false,
      "inputs": [
        {
          "indexed": true,
          "internalType": "bytes32",
          "name": "txHash",
          "type": "bytes32"
        },
        {
          "indexed": true,
          "internalType": "address",
          "name": "target",
          "type": "address"
        },
        {
          "indexed": false,
          "internalType": "uint256",
          "name": "value",
          "type": "uint256"
        },
        {
          "indexed": false,
          "internalType": "bytes",
          "name": "data",
          "type": "bytes"
        }
      ],
      "name": "TransactionExecuted",
      "type": "event"
    },
    {
      "anonymous": false,
      "inputs": [
        {
          "indexed": true,
          "internalType": "bytes32",
          "name": "txHash",
          "type": "bytes32"
        },
        {
          "indexed": true,
          "internalType": "address",
          "name": "target",
          "type": "address"
        },
        {
          "indexed": false,
          "internalType": "string",
          "name": "reason",
          "type": "string"
        }
      ],
      "name": "TransactionExecutionFailed",
      "type": "event"
    },
    {
      "anonymous": false,
      "inputs": [
        {
          "indexed": true,
          "internalType": "bytes32",
          "name": "txHash",
          "type": "bytes32"
        },
        {
          "indexed": true,
          "internalType": "address",
          "name": "target",
          "type": "address"
        },
        {
          "indexed": false,
          "internalType": "uint256",
          "name": "value",
          "type": "uint256"
        },
        {
          "indexed": false,
          "internalType": "bytes",
          "name": "data",
          "type": "bytes"
        },
        {
          "indexed": false,
          "internalType": "uint256",
          "name": "eta",
          "type": "uint256"
        },
        {
          "indexed": false,
          "internalType": "enum JustTimelockUpgradeable.ThreatLevel",
          "name": "threatLevel",
          "type": "uint8"
        }
      ],
      "name": "TransactionQueued",
      "type": "event"
    },
    {
      "anonymous": false,
      "inputs": [
        {
          "indexed": true,
          "internalType": "bytes32",
          "name": "txHash",
          "type": "bytes32"
        },
        {
          "indexed": true,
          "internalType": "address",
          "name": "proposer",
          "type": "address"
        }
      ],
      "name": "TransactionSubmitted",
      "type": "event"
    },
    {
      "anonymous": false,
      "inputs": [
        {
          "indexed": false,
          "internalType": "address",
          "name": "account",
          "type": "address"
        }
      ],
      "name": "Unpaused",
      "type": "event"
    },
    {
      "anonymous": false,
      "inputs": [
        {
          "indexed": true,
          "internalType": "address",
          "name": "implementation",
          "type": "address"
        }
      ],
      "name": "Upgraded",
      "type": "event"
    },
    {
      "inputs": [],
      "name": "ADMIN_ROLE",
      "outputs": [
        {
          "internalType": "bytes32",
          "name": "",
          "type": "bytes32"
        }
      ],
      "stateMutability": "view",
      "type": "function"
    },
    {
      "inputs": [],
      "name": "CANCELLER_ROLE",
      "outputs": [
        {
          "internalType": "bytes32",
          "name": "",
          "type": "bytes32"
        }
      ],
      "stateMutability": "view",
      "type": "function"
    },
    {
      "inputs": [],
      "name": "DEFAULT_ADMIN_ROLE",
      "outputs": [
        {
          "internalType": "bytes32",
          "name": "",
          "type": "bytes32"
        }
      ],
      "stateMutability": "view",
      "type": "function"
    },
    {
      "inputs": [],
      "name": "EXECUTOR_ROLE",
      "outputs": [
        {
          "internalType": "bytes32",
          "name": "",
          "type": "bytes32"
        }
      ],
      "stateMutability": "view",
      "type": "function"
    },
    {
      "inputs": [],
      "name": "GOVERNANCE_ROLE",
      "outputs": [
        {
          "internalType": "bytes32",
          "name": "",
          "type": "bytes32"
        }
      ],
      "stateMutability": "view",
      "type": "function"
    },
    {
      "inputs": [],
      "name": "GUARDIAN_ROLE",
      "outputs": [
        {
          "internalType": "bytes32",
          "name": "",
          "type": "bytes32"
        }
      ],
      "stateMutability": "view",
      "type": "function"
    },
    {
      "inputs": [],
      "name": "MINTER_ROLE",
      "outputs": [
        {
          "internalType": "bytes32",
          "name": "",
          "type": "bytes32"
        }
      ],
      "stateMutability": "view",
      "type": "function"
    },
    {
      "inputs": [],
      "name": "PROPOSER_ROLE",
      "outputs": [
        {
          "internalType": "bytes32",
          "name": "",
          "type": "bytes32"
        }
      ],
      "stateMutability": "view",
      "type": "function"
    },
    {
      "inputs": [],
      "name": "TIMELOCK_ADMIN_ROLE",
      "outputs": [
        {
          "internalType": "bytes32",
          "name": "",
          "type": "bytes32"
        }
      ],
      "stateMutability": "view",
      "type": "function"
    },
    {
      "inputs": [
        {
          "internalType": "address",
          "name": "",
          "type": "address"
        }
      ],
      "name": "addressThreatLevels",
      "outputs": [
        {
          "internalType": "enum JustTimelockUpgradeable.ThreatLevel",
          "name": "",
          "type": "uint8"
        }
      ],
      "stateMutability": "view",
      "type": "function"
    },
    {
      "inputs": [
        {
          "internalType": "bytes32",
          "name": "txHash",
          "type": "bytes32"
        }
      ],
      "name": "cancelTransaction",
      "outputs": [],
      "stateMutability": "nonpayable",
      "type": "function"
    },
    {
      "inputs": [
        {
          "internalType": "bytes32",
          "name": "txHash",
          "type": "bytes32"
        }
      ],
      "name": "executeExpiredTransaction",
      "outputs": [
        {
          "internalType": "bytes",
          "name": "returnData",
          "type": "bytes"
        }
      ],
      "stateMutability": "nonpayable",
      "type": "function"
    },
    {
      "inputs": [
        {
          "internalType": "bytes32",
          "name": "txHash",
          "type": "bytes32"
        }
      ],
      "name": "executeFailedTransaction",
      "outputs": [
        {
          "internalType": "bytes",
          "name": "returnData",
          "type": "bytes"
        }
      ],
      "stateMutability": "nonpayable",
      "type": "function"
    },
    {
      "inputs": [
        {
          "internalType": "bytes32",
          "name": "txHash",
          "type": "bytes32"
        }
      ],
      "name": "executeTransaction",
      "outputs": [
        {
          "internalType": "bytes",
          "name": "returnData",
          "type": "bytes"
        }
      ],
      "stateMutability": "nonpayable",
      "type": "function"
    },
    {
      "inputs": [
        {
          "internalType": "bytes4",
          "name": "",
          "type": "bytes4"
        }
      ],
      "name": "functionThreatLevels",
      "outputs": [
        {
          "internalType": "enum JustTimelockUpgradeable.ThreatLevel",
          "name": "",
          "type": "uint8"
        }
      ],
      "stateMutability": "view",
      "type": "function"
    },
    {
      "inputs": [
        {
          "internalType": "enum JustTimelockUpgradeable.ThreatLevel",
          "name": "level",
          "type": "uint8"
        }
      ],
      "name": "getDelayForThreatLevel",
      "outputs": [
        {
          "internalType": "uint256",
          "name": "",
          "type": "uint256"
        }
      ],
      "stateMutability": "view",
      "type": "function"
    },
    {
      "inputs": [],
      "name": "getPendingTransactionCount",
      "outputs": [
        {
          "internalType": "uint256",
          "name": "",
          "type": "uint256"
        }
      ],
      "stateMutability": "view",
      "type": "function"
    },
    {
      "inputs": [],
      "name": "getPendingTransactions",
      "outputs": [
        {
          "internalType": "bytes32[]",
          "name": "",
          "type": "bytes32[]"
        }
      ],
      "stateMutability": "view",
      "type": "function"
    },
    {
      "inputs": [
        {
          "internalType": "bytes32",
          "name": "role",
          "type": "bytes32"
        }
      ],
      "name": "getRoleAdmin",
      "outputs": [
        {
          "internalType": "bytes32",
          "name": "",
          "type": "bytes32"
        }
      ],
      "stateMutability": "view",
      "type": "function"
    },
    {
      "inputs": [
        {
          "internalType": "bytes32",
          "name": "role",
          "type": "bytes32"
        },
        {
          "internalType": "uint256",
          "name": "index",
          "type": "uint256"
        }
      ],
      "name": "getRoleMember",
      "outputs": [
        {
          "internalType": "address",
          "name": "",
          "type": "address"
        }
      ],
      "stateMutability": "view",
      "type": "function"
    },
    {
      "inputs": [
        {
          "internalType": "bytes32",
          "name": "role",
          "type": "bytes32"
        }
      ],
      "name": "getRoleMemberCount",
      "outputs": [
        {
          "internalType": "uint256",
          "name": "",
          "type": "uint256"
        }
      ],
      "stateMutability": "view",
      "type": "function"
    },
    {
      "inputs": [
        {
          "internalType": "address",
          "name": "target",
          "type": "address"
        },
        {
          "internalType": "bytes",
          "name": "data",
          "type": "bytes"
        }
      ],
      "name": "getThreatLevel",
      "outputs": [
        {
          "internalType": "enum JustTimelockUpgradeable.ThreatLevel",
          "name": "",
          "type": "uint8"
        }
      ],
      "stateMutability": "view",
      "type": "function"
    },
    {
      "inputs": [
        {
          "internalType": "bytes32",
          "name": "txHash",
          "type": "bytes32"
        }
      ],
      "name": "getTransaction",
      "outputs": [
        {
          "internalType": "address",
          "name": "target",
          "type": "address"
        },
        {
          "internalType": "uint256",
          "name": "value",
          "type": "uint256"
        },
        {
          "internalType": "bytes",
          "name": "data",
          "type": "bytes"
        },
        {
          "internalType": "uint256",
          "name": "eta",
          "type": "uint256"
        },
        {
          "internalType": "uint8",
          "name": "state",
          "type": "uint8"
        }
      ],
      "stateMutability": "view",
      "type": "function"
    },
    {
      "inputs": [
        {
          "internalType": "bytes32",
          "name": "txHash",
          "type": "bytes32"
        }
      ],
      "name": "getTransactionStatus",
      "outputs": [
        {
          "internalType": "bool",
          "name": "exists",
          "type": "bool"
        },
        {
          "internalType": "bool",
          "name": "executed",
          "type": "bool"
        },
        {
          "internalType": "bool",
          "name": "canceled",
          "type": "bool"
        },
        {
          "internalType": "bool",
          "name": "failed",
          "type": "bool"
        },
        {
          "internalType": "bool",
          "name": "expired",
          "type": "bool"
        },
        {
          "internalType": "bool",
          "name": "readyToExecute",
          "type": "bool"
        }
      ],
      "stateMutability": "view",
      "type": "function"
    },
    {
      "inputs": [],
      "name": "gracePeriod",
      "outputs": [
        {
          "internalType": "uint256",
          "name": "",
          "type": "uint256"
        }
      ],
      "stateMutability": "view",
      "type": "function"
    },
    {
      "inputs": [
        {
          "internalType": "bytes32",
          "name": "role",
          "type": "bytes32"
        },
        {
          "internalType": "address",
          "name": "account",
          "type": "address"
        }
      ],
      "name": "grantContractRole",
      "outputs": [],
      "stateMutability": "nonpayable",
      "type": "function"
    },
    {
      "inputs": [
        {
          "internalType": "bytes32",
          "name": "role",
          "type": "bytes32"
        },
        {
          "internalType": "address",
          "name": "account",
          "type": "address"
        }
      ],
      "name": "grantRole",
      "outputs": [],
      "stateMutability": "nonpayable",
      "type": "function"
    },
    {
      "inputs": [
        {
          "internalType": "bytes32",
          "name": "role",
          "type": "bytes32"
        },
        {
          "internalType": "address",
          "name": "account",
          "type": "address"
        }
      ],
      "name": "hasRole",
      "outputs": [
        {
          "internalType": "bool",
          "name": "",
          "type": "bool"
        }
      ],
      "stateMutability": "view",
      "type": "function"
    },
    {
      "inputs": [],
      "name": "highThreatDelay",
      "outputs": [
        {
          "internalType": "uint256",
          "name": "",
          "type": "uint256"
        }
      ],
      "stateMutability": "view",
      "type": "function"
    },
    {
      "inputs": [
        {
          "internalType": "uint256",
          "name": "initialMinDelay",
          "type": "uint256"
        },
        {
          "internalType": "address[]",
          "name": "proposers",
          "type": "address[]"
        },
        {
          "internalType": "address[]",
          "name": "executors",
          "type": "address[]"
        },
        {
          "internalType": "address",
          "name": "admin",
          "type": "address"
        }
      ],
      "name": "initialize",
      "outputs": [],
      "stateMutability": "nonpayable",
      "type": "function"
    },
    {
      "inputs": [
        {
          "internalType": "address",
          "name": "user",
          "type": "address"
        }
      ],
      "name": "isAuthorizedByTokens",
      "outputs": [
        {
          "internalType": "bool",
          "name": "",
          "type": "bool"
        }
      ],
      "stateMutability": "view",
      "type": "function"
    },
    {
      "inputs": [
        {
          "internalType": "bytes32",
          "name": "txHash",
          "type": "bytes32"
        }
      ],
      "name": "isCanceled",
      "outputs": [
        {
          "internalType": "bool",
          "name": "",
          "type": "bool"
        }
      ],
      "stateMutability": "view",
      "type": "function"
    },
    {
      "inputs": [],
      "name": "justToken",
      "outputs": [
        {
          "internalType": "contract JustTokenInterface",
          "name": "",
          "type": "address"
        }
      ],
      "stateMutability": "view",
      "type": "function"
    },
    {
      "inputs": [],
      "name": "lowThreatDelay",
      "outputs": [
        {
          "internalType": "uint256",
          "name": "",
          "type": "uint256"
        }
      ],
      "stateMutability": "view",
      "type": "function"
    },
    {
      "inputs": [
        {
          "internalType": "bytes32",
          "name": "txHash",
          "type": "bytes32"
        }
      ],
      "name": "markTransactionAsFailed",
      "outputs": [],
      "stateMutability": "nonpayable",
      "type": "function"
    },
    {
      "inputs": [],
      "name": "maxDelay",
      "outputs": [
        {
          "internalType": "uint256",
          "name": "",
          "type": "uint256"
        }
      ],
      "stateMutability": "view",
      "type": "function"
    },
    {
      "inputs": [],
      "name": "mediumThreatDelay",
      "outputs": [
        {
          "internalType": "uint256",
          "name": "",
          "type": "uint256"
        }
      ],
      "stateMutability": "view",
      "type": "function"
    },
    {
      "inputs": [],
      "name": "minDelay",
      "outputs": [
        {
          "internalType": "uint256",
          "name": "",
          "type": "uint256"
        }
      ],
      "stateMutability": "view",
      "type": "function"
    },
    {
      "inputs": [],
      "name": "minExecutorTokenThreshold",
      "outputs": [
        {
          "internalType": "uint256",
          "name": "",
          "type": "uint256"
        }
      ],
      "stateMutability": "view",
      "type": "function"
    },
    {
      "inputs": [],
      "name": "paused",
      "outputs": [
        {
          "internalType": "bool",
          "name": "",
          "type": "bool"
        }
      ],
      "stateMutability": "view",
      "type": "function"
    },
    {
      "inputs": [],
      "name": "proxiableUUID",
      "outputs": [
        {
          "internalType": "bytes32",
          "name": "",
          "type": "bytes32"
        }
      ],
      "stateMutability": "view",
      "type": "function"
    },
    {
      "inputs": [
        {
          "internalType": "uint256",
          "name": "newMinDelay",
          "type": "uint256"
        },
        {
          "internalType": "uint256",
          "name": "newMaxDelay",
          "type": "uint256"
        },
        {
          "internalType": "uint256",
          "name": "newGracePeriod",
          "type": "uint256"
        }
      ],
      "name": "queueDelayUpdate",
      "outputs": [
        {
          "internalType": "bytes32",
          "name": "",
          "type": "bytes32"
        }
      ],
      "stateMutability": "nonpayable",
      "type": "function"
    },
    {
      "inputs": [
        {
          "internalType": "uint256",
          "name": "newLowDelay",
          "type": "uint256"
        },
        {
          "internalType": "uint256",
          "name": "newMediumDelay",
          "type": "uint256"
        },
        {
          "internalType": "uint256",
          "name": "newHighDelay",
          "type": "uint256"
        }
      ],
      "name": "queueThreatLevelDelaysUpdate",
      "outputs": [
        {
          "internalType": "bytes32",
          "name": "",
          "type": "bytes32"
        }
      ],
      "stateMutability": "nonpayable",
      "type": "function"
    },
    {
      "inputs": [
        {
          "internalType": "address",
          "name": "target",
          "type": "address"
        },
        {
          "internalType": "uint256",
          "name": "value",
          "type": "uint256"
        },
        {
          "internalType": "bytes",
          "name": "data",
          "type": "bytes"
        },
        {
          "internalType": "uint256",
          "name": "delay",
          "type": "uint256"
        }
      ],
      "name": "queueTransaction",
      "outputs": [
        {
          "internalType": "bytes32",
          "name": "",
          "type": "bytes32"
        }
      ],
      "stateMutability": "nonpayable",
      "type": "function"
    },
    {
      "inputs": [
        {
          "internalType": "address",
          "name": "target",
          "type": "address"
        },
        {
          "internalType": "uint256",
          "name": "value",
          "type": "uint256"
        },
        {
          "internalType": "bytes",
          "name": "data",
          "type": "bytes"
        }
      ],
      "name": "queueTransactionWithThreatLevel",
      "outputs": [
        {
          "internalType": "bytes32",
          "name": "",
          "type": "bytes32"
        }
      ],
      "stateMutability": "nonpayable",
      "type": "function"
    },
    {
      "inputs": [
        {
          "internalType": "bytes32",
          "name": "",
          "type": "bytes32"
        }
      ],
      "name": "queuedTransactions",
      "outputs": [
        {
          "internalType": "bool",
          "name": "",
          "type": "bool"
        }
      ],
      "stateMutability": "view",
      "type": "function"
    },
    {
      "inputs": [
        {
          "internalType": "bytes32",
          "name": "role",
          "type": "bytes32"
        },
        {
          "internalType": "address",
          "name": "account",
          "type": "address"
        }
      ],
      "name": "renounceRole",
      "outputs": [],
      "stateMutability": "nonpayable",
      "type": "function"
    },
    {
      "inputs": [
        {
          "internalType": "bytes32",
          "name": "role",
          "type": "bytes32"
        },
        {
          "internalType": "address",
          "name": "account",
          "type": "address"
        }
      ],
      "name": "revokeContractRole",
      "outputs": [],
      "stateMutability": "nonpayable",
      "type": "function"
    },
    {
      "inputs": [
        {
          "internalType": "bytes32",
          "name": "role",
          "type": "bytes32"
        },
        {
          "internalType": "address",
          "name": "account",
          "type": "address"
        }
      ],
      "name": "revokeRole",
      "outputs": [],
      "stateMutability": "nonpayable",
      "type": "function"
    },
    {
      "inputs": [
        {
          "internalType": "address",
          "name": "target",
          "type": "address"
        },
        {
          "internalType": "enum JustTimelockUpgradeable.ThreatLevel",
          "name": "level",
          "type": "uint8"
        }
      ],
      "name": "setAddressThreatLevel",
      "outputs": [],
      "stateMutability": "nonpayable",
      "type": "function"
    },
    {
      "inputs": [
        {
          "internalType": "address[]",
          "name": "targets",
          "type": "address[]"
        },
        {
          "internalType": "enum JustTimelockUpgradeable.ThreatLevel[]",
          "name": "levels",
          "type": "uint8[]"
        }
      ],
      "name": "setBatchAddressThreatLevels",
      "outputs": [],
      "stateMutability": "nonpayable",
      "type": "function"
    },
    {
      "inputs": [
        {
          "internalType": "bytes4[]",
          "name": "selectors",
          "type": "bytes4[]"
        },
        {
          "internalType": "enum JustTimelockUpgradeable.ThreatLevel[]",
          "name": "levels",
          "type": "uint8[]"
        }
      ],
      "name": "setBatchFunctionThreatLevels",
      "outputs": [],
      "stateMutability": "nonpayable",
      "type": "function"
    },
    {
      "inputs": [
        {
          "internalType": "bytes4",
          "name": "selector",
          "type": "bytes4"
        },
        {
          "internalType": "enum JustTimelockUpgradeable.ThreatLevel",
          "name": "level",
          "type": "uint8"
        }
      ],
      "name": "setFunctionThreatLevel",
      "outputs": [],
      "stateMutability": "nonpayable",
      "type": "function"
    },
    {
      "inputs": [
        {
          "internalType": "address",
          "name": "tokenAddress",
          "type": "address"
        }
      ],
      "name": "setJustToken",
      "outputs": [],
      "stateMutability": "nonpayable",
      "type": "function"
    },
    {
      "inputs": [
        {
          "internalType": "bool",
          "name": "isPaused",
          "type": "bool"
        }
      ],
      "name": "setPaused",
      "outputs": [],
      "stateMutability": "nonpayable",
      "type": "function"
    },
    {
      "inputs": [
        {
          "internalType": "bytes4",
          "name": "interfaceId",
          "type": "bytes4"
        }
      ],
      "name": "supportsInterface",
      "outputs": [
        {
          "internalType": "bool",
          "name": "",
          "type": "bool"
        }
      ],
      "stateMutability": "view",
      "type": "function"
    },
    {
      "inputs": [
        {
          "internalType": "uint256",
          "name": "newMinDelay",
          "type": "uint256"
        },
        {
          "internalType": "uint256",
          "name": "newMaxDelay",
          "type": "uint256"
        },
        {
          "internalType": "uint256",
          "name": "newGracePeriod",
          "type": "uint256"
        }
      ],
      "name": "updateDelays",
      "outputs": [],
      "stateMutability": "nonpayable",
      "type": "function"
    },
    {
      "inputs": [
        {
          "internalType": "uint256",
          "name": "newThreshold",
          "type": "uint256"
        }
      ],
      "name": "updateExecutorTokenThreshold",
      "outputs": [],
      "stateMutability": "nonpayable",
      "type": "function"
    },
    {
      "inputs": [
        {
          "internalType": "uint256",
          "name": "newLowDelay",
          "type": "uint256"
        },
        {
          "internalType": "uint256",
          "name": "newMediumDelay",
          "type": "uint256"
        },
        {
          "internalType": "uint256",
          "name": "newHighDelay",
          "type": "uint256"
        }
      ],
      "name": "updateThreatLevelDelays",
      "outputs": [],
      "stateMutability": "nonpayable",
      "type": "function"
    },
    {
      "inputs": [
        {
          "internalType": "address",
          "name": "newImplementation",
          "type": "address"
        }
      ],
      "name": "upgradeTo",
      "outputs": [],
      "stateMutability": "nonpayable",
      "type": "function"
    },
    {
      "inputs": [
        {
          "internalType": "address",
          "name": "newImplementation",
          "type": "address"
        },
        {
          "internalType": "bytes",
          "name": "data",
          "type": "bytes"
        }
      ],
      "name": "upgradeToAndCall",
      "outputs": [],
      "stateMutability": "payable",
      "type": "function"
    },
    {
      "inputs": [
        {
          "internalType": "bytes32",
          "name": "txHash",
          "type": "bytes32"
        }
      ],
      "name": "wasTransactionFailed",
      "outputs": [
        {
          "internalType": "bool",
          "name": "",
          "type": "bool"
        }
      ],
      "stateMutability": "view",
      "type": "function"
    }
  ],
  "bytecode": "0x60a0604052346200003657620000146200003b565b60405161596962000093823960805181818161185b01526119a7015261596990f35b600080fd5b6200004562000082565b565b6200005d9062000060906001600160a01b031682565b90565b6001600160a01b031690565b6200005d9062000047565b6200005d906200006c565b6200008d3062000077565b60805256fe6080604052600436101561001257600080fd5b60003560e01c8063018fd60a146103f257806301ffc9a7146103ed57806307bd0265146103e857806308eb0d39146103e35780630d3cf6fc146103de5780631390a3f3146103d957806316c38b3c146103d457806319c51aad146103cf578063248a9ca3146103ca57806324ea54f4146103c55780632bfec3d3146103c05780632f2ff15d146103bb57806336568abe146103b65780633659cfe6146103b15780634aae13ca146103ac5780634f1ef286146103a7578063504534c1146103a257806352d1902d1461039d578063531355a9146103985780635c975abb146103935780635e5f13621461038e5780635e6a22951461038957806361b69fde146103845780636b7653b21461037f5780636e34fdd81461037a57806370ba33391461037557806370d26de51461037057806373680ade1461036b57806375b238fc146103665780637bd3f6861461036157806385ab3ecd1461035c5780638cc0e200146103575780638e361cdf146103525780638f61f4f51461034d5780639010d07c1461034857806391d1485414610343578063932b14871461033e578063935dfcc61461033957806394407465146103345780639646d7991461032f578063a06db7dc1461032a578063a217fddf14610325578063b08e51c014610320578063bbfe22c01461031b578063bd338f3614610316578063c4c4c7b314610311578063c63c4e9b1461030c578063c69ed5f214610307578063c7697c5314610302578063ca15c873146102fd578063d0bf1cbb146102f8578063d11db83f146102f3578063d5391393146102ee578063d547741f146102e9578063dbd62506146102e4578063ddbd5d3f146102df578063e3d0c2b6146102da578063ebaa5269146102d5578063ed49d2f8146102d0578063f21c00ba146102cb578063f2b06537146102c65763f36c8f5c036103f75761138c565b611371565b61133f565b611324565b6112fb565b6112e0565b6112c5565b61129e565b611247565b61120e565b6111e7565b611164565b611107565b6110ec565b6110d1565b6110b6565b61108d565b610f8f565b610f4d565b610f14565b610ef9565b610ebf565b610e9a565b610e66565b610df5565b610dbf565b610da3565b610d6c565b610d22565b610d03565b610c9a565b610c7f565b610c57565b610c2f565b610be8565b610bcf565b610bb7565b610b9c565b610b73565b610b58565b610b3c565b610b23565b610ae5565b610aca565b610a84565b610a5c565b610987565b61085c565b6107f0565b6107d7565b6107be565b610780565b610736565b61071b565b610702565b6106ba565b610675565b6105be565b610596565b6104cf565b610496565b610440565b600080fd5b6001600160a01b031690565b90565b6001600160a01b0381165b036103f757565b9050359061042a8261040b565b565b906020828203126103f7576104089161041d565b346103f75761045861045336600461042c565b612da4565b604051005b0390f35b6001600160e01b03198116610416565b9050359061042a82610461565b906020828203126103f75761040891610471565b9052565b346103f75761045d6104b16104ac36600461047e565b6113b3565b6040515b91829182901515815260200190565b60009103126103f757565b346103f7576104df3660046104c4565b61045d60008051602061591d8339815191525b6040515b9182918290815260200190565b80610416565b9050359061042a82610503565b906020828203126103f75761040891610509565b60005b83811061053d5750506000910152565b818101518382015260200161052d565b61056e61057760209361058193610562815190565b80835293849260200190565b9586910161052a565b601f01601f191690565b0190565b60208082526104089291019061054d565b346103f75761045d6105b16105ac366004610516565b614c02565b6040515b91829182610585565b346103f7576105ce3660046104c4565b61045d7f5f58e3a2316349923ce3780f8d587db2d72378aed66a8261c916544fa6846ca56104f2565b909182601f830112156103f75781359167ffffffffffffffff83116103f75760200192602083028401116103f757565b90916040828403126103f757813567ffffffffffffffff81116103f757836106509184016105f7565b929093602082013567ffffffffffffffff81116103f75761067192016105f7565b9091565b346103f757610458610688366004610627565b9291909161543b565b801515610416565b9050359061042a82610691565b906020828203126103f75761040891610699565b346103f7576104586106cd3660046106a6565b6157e4565b90916060828403126103f7576104086106eb8484610509565b936106f98160208601610509565b93604001610509565b346103f7576104586107153660046106d2565b916150e3565b346103f75761045d6104f2610731366004610516565b611488565b346103f7576107463660046104c4565b61045d60008051602061593d8339815191526104f2565b610408916008021c81565b90610408915461075d565b6104086000610195610768565b346103f7576107903660046104c4565b61045d6104f2610773565b91906040838203126103f757610408906107b58185610509565b9360200161041d565b346103f7576104586107d136600461079b565b906114bf565b346103f7576104586107ea36600461079b565b906116ad565b346103f75761045861080336600461042c565b611a68565b9061084b6108539161042a9698979561083e60809661083760a088019460008901906001600160a01b03169052565b6020870152565b848203604086015261054d565b966060830152565b019060ff169052565b346103f75761045d610877610872366004610516565b614dc1565b9161088495939560405190565b95869586610808565b634e487b7160e01b600052604160045260246000fd5b90601f01601f1916810190811067ffffffffffffffff8211176108c557604052565b61088d565b9061042a6108d760405190565b92836108a3565b67ffffffffffffffff81116108c557602090601f01601f19160190565b90826000939282370152565b9092919261091c610917826108de565b6108ca565b938185526020850190828401116103f75761042a926108fb565b9080601f830112156103f75781602061040893359101610907565b9190916040818403126103f757610968838261041d565b92602082013567ffffffffffffffff81116103f7576104089201610936565b610458610995366004610951565b90611db7565b610408906103fc906001600160a01b031682565b6104089061099b565b610408906109af565b906109cb906109b8565b600052602052604060002090565b610408916008021c5b60ff1690565b9061040891546109d9565b61040890610a06610199916000926109c1565b6109e8565b634e487b7160e01b600052602160045260246000fd5b60031115610a2b57565b610a0b565b9061042a82610a21565b61040890610a30565b61049290610a3a565b60208101929161042a9190610a43565b346103f75761045d610a77610a7236600461042c565b6109f3565b6040515b91829182610a4c565b346103f757610a943660046104c4565b61045d6104f26118c6565b600311156103f757565b9050359061042a82610a9f565b906020828203126103f75761040891610aa9565b346103f75761045d6104f2610ae0366004610ab6565b613ea2565b346103f757610af53660046104c4565b61045d6104b1611dc1565b91906040838203126103f75761040890610b1a818561041d565b93602001610aa9565b346103f757610458610b36366004610b00565b90615494565b346103f75761045d610a77610b52366004610951565b90613997565b346103f75761045d6104b1610b6e366004610516565b6150c5565b346103f75761045d6104f2610b893660046106d2565b91615753565b6104086000610197610768565b346103f757610bac3660046104c4565b61045d6104f2610b8f565b346103f757610458610bca366004610516565b614db8565b346103f757610458610be236600461079b565b9061392c565b346103f75761045d6105b1610bfe366004610516565b6134d2565b7fa49807205ce4d355092ef5a8a18f56e8913cf4a201fbe287825b095693c2177590565b610408610c03565b346103f757610c3f3660046104c4565b61045d6104f2610c27565b6104086000610196610768565b346103f757610c673660046104c4565b61045d6104f2610c4a565b6104086000610194610768565b346103f757610c8f3660046104c4565b61045d6104f2610c72565b346103f757610458610cad3660046106d2565b916151dd565b6080818303126103f757610cc7828261041d565b92610cd58360208401610509565b9260408301359067ffffffffffffffff82116103f757610cfa81610408938601610936565b93606001610509565b346103f75761045d6104f2610d19366004610cb3565b9291909161407d565b346103f757610d323660046104c4565b61045d6000805160206158fd8339815191526104f2565b91906040838203126103f75761040890610d638185610509565b93602001610509565b346103f75761045d610d88610d82366004610d49565b906113dc565b6040515b918291826001600160a01b03909116815260200190565b346103f75761045d6104b1610db936600461079b565b9061144f565b346103f757610458610dd2366004610627565b92919091615566565b91906040838203126103f75761040890610b1a8185610471565b346103f757610458610e08366004610ddb565b9061533f565b9194610e55610e5e92989795610e4c60a096610e4361042a9a610e3a60c08a019e60008b019015159052565b15156020890152565b15156040870152565b15156060850152565b15156080830152565b019015159052565b346103f75761045d610e81610e7c366004610516565b614e1d565b92610e9196949692919260405190565b96879687610e0e565b346103f757610458610ead366004610516565b613554565b6104086000610193610768565b346103f757610ecf3660046104c4565b61045d6104f2610eb2565b6104086104086104089290565b6104086000610eda565b610408610ee7565b346103f757610f093660046104c4565b61045d6104f2610ef1565b346103f757610f243660046104c4565b61045d7ffd643c72710c63c0180259aba6b2d05451e3591a24e58b62239378085726f7836104f2565b346103f757610458610f60366004610516565b614894565b6001600160e01b03191690565b906109cb90610f65565b61040890610a0661019891600092610f72565b346103f75761045d610a77610fa536600461047e565b610f7c565b67ffffffffffffffff81116108c55760208091020190565b90929192610fd261091782610faa565b93818552602080860192028301928184116103f757915b838310610ff65750505050565b60208091611004848661041d565b815201920191610fe9565b9080601f830112156103f75781602061040893359101610fc2565b6080818303126103f75761103e8282610509565b92602082013567ffffffffffffffff81116103f7578361105f91840161100f565b9260408301359067ffffffffffffffff82116103f7576110848161040893860161100f565b9360600161041d565b346103f7576104586110a036600461102a565b92919091612bcd565b6104086000610191610768565b346103f7576110c63660046104c4565b61045d6104f26110a9565b346103f75761045d6105b16110e7366004610516565b614889565b346103f75761045d6104b1611102366004610516565b614c0d565b346103f75761045d6104f261111d366004610516565b6113fc565b916060838303126103f757611137828461041d565b926111458360208301610509565b92604082013567ffffffffffffffff81116103f7576104089201610936565b346103f75761045d6104f261117a366004611122565b9161303d565b906111a061119961118f845190565b8084529260200190565b9260200190565b9060005b8181106111b15750505090565b9091926111ce6111c76001928651815260200190565b9460200190565b9291016111a4565b602080825261040892910190611180565b346103f7576111f73660046104c4565b61045d611202614fe1565b604051918291826111d6565b346103f75761121e3660046104c4565b61045d7f9f2df0fed2c77648de5860a4cc508cd0818c85b8b8a1ab4ceeef8d981c8956a66104f2565b346103f75761045861125a36600461079b565b90611625565b610408916008021c6103fc565b906104089154611260565b610408600061019a61126d565b610492906109b8565b60208101929161042a9190611285565b346103f7576112ae3660046104c4565b61045d6112b9611278565b6040519182918261128e565b346103f7576112d53660046104c4565b61045d6104f2614f55565b346103f75761045d6104b16112f636600461042c565b613ef4565b346103f75761045d6104f26113113660046106d2565b91615692565b6104086000610192610768565b346103f7576113343660046104c4565b61045d6104f2611317565b346103f75761045861135236600461079b565b90613862565b906109cb565b61040890610a0661019c91600092611358565b346103f75761045d6104b1611387366004610516565b61135e565b346103f75761139c3660046104c4565b61045d6000805160206158dd8339815191526104f2565b635a05180f60e01b6001600160e01b03198216149081156113d2575090565b6104089150611413565b906113f7610408610408936113ef600090565b506097611358565b612481565b61140e610408610408926113ef600090565b61244a565b637965db0b60e01b6001600160e01b0319821614908115611432575090565b6104089150612199565b610408906109e2565b610408905461143c565b61040891600061146c61147293611464600090565b506065611358565b016109c1565b611445565b6104089081565b6104089054611477565b600161149961040892611464600090565b0161147e565b9061042a916114b56114b082611488565b6114ed565b9061042a916114c9565b9061042a9161149f565b906114e56104086114ea936114de84826116fd565b6097611358565b6121b7565b50565b61042a90339061157d565b61040890610eda565b61058161151992602092611513815190565b94859290565b9384910161052a565b611560610408939261155a61155a937f416363657373436f6e74726f6c3a206163636f756e7420000000000000000000815260170190565b90611501565b7001034b99036b4b9b9b4b733903937b6329607d1b815260110190565b9061158f61158b828461144f565b1590565b611597575050565b611606916104086115b36115ad6115ed9461216c565b926114f8565b6115c86020916115c283610eda565b90612022565b926115e16115d560405190565b94859384019283611522565b908103825203826108a3565b6040515b62461bcd60e51b815291829160048301610585565b0390fd5b9061042a9161161b6114b082611488565b9061042a9161162f565b9061042a9161160a565b906116446104086114ea936114de8482611774565b6122f7565b1561165057565b60405162461bcd60e51b815260206004820152602f60248201527f416363657373436f6e74726f6c3a2063616e206f6e6c792072656e6f756e636560448201526e103937b632b9903337b91039b2b63360891b6064820152608490fd5b61042a91906116ce6116be336103fc565b6001600160a01b03841614611649565b61162f565b9060ff905b9181191691161790565b906116f26104086116f992151590565b82546116d3565b9055565b9061170b61158b828461144f565b611713575050565b61172e600161172983600061146c876065611358565b6116e2565b339061176461175e61175e7f2f8788117e7eff1d82e926ec794901d17c78024a50270940304540a733656f0d9590565b926109b8565b9261176e60405190565b600090a4565b9061177f818361144f565b611787575050565b61179c6000611729838261146c876065611358565b339061176461175e61175e7ff6391f5c32d9c69d2a47ea670b442974b53935d1edc7fd64eb21e047a839171b9590565b156117d357565b60405162461bcd60e51b815260206004820152603860248201527f555550535570677261646561626c653a206d757374206e6f742062652063616c60448201527f6c6564207468726f7567682064656c656761746563616c6c00000000000000006064820152608490fd5b6104089061188f61184e306109b8565b6118896001600160a01b037f0000000000000000000000000000000000000000000000000000000000000000165b916001600160a01b031690565b146117cc565b6118bd565b6104087f360894a13ba1a3210667c828492db98dca3e2076cc3735a920a3ca505d382bbc610eda565b50610408611894565b610408600061183e565b156118d757565b60405162461bcd60e51b815260206004820152602c60248201527f46756e6374696f6e206d7573742062652063616c6c6564207468726f7567682060448201526b19195b1959d85d1958d85b1b60a21b6064820152608490fd5b1561193857565b60405162461bcd60e51b815260206004820152602c60248201527f46756e6374696f6e206d7573742062652063616c6c6564207468726f7567682060448201526b6163746976652070726f787960a01b6064820152608490fd5b61042a90611a026119a2306109b8565b6119e17f0000000000000000000000000000000000000000000000000000000000000000916119da61187c846001600160a01b031690565b14156118d0565b6119fc61187c6119ef611a84565b926001600160a01b031690565b14611931565b611a41565b90611a14610917836108de565b918252565b369037565b9061042a611a34611a2e84611a07565b936108de565b601f190160208401611a19565b61042a90611a4e81612cfc565b600090611a62611a5d83610eda565b611a1e565b90611b42565b61042a90611992565b610408906103fc565b6104089054611a71565b6104086000611a94610408611894565b01611a7a565b6104087f4910fdfa16fed3260ed0e7147f7cc6da11a60208b5b9406d12a635614ffd9143610eda565b9050519061042a82610503565b906020828203126103f75761040891611ac3565b15611aeb57565b60405162461bcd60e51b815260206004820152602960248201527f45524331393637557067726164653a20756e737570706f727465642070726f786044820152681a58589b195555525160ba1b6064820152608490fd5b9190611b5a6000611b54610408611a9a565b01611445565b15611b6a57505061042a90611ce8565b826020611b81611b7c611b99966109b8565b6109b8565b6352d1902d90611b9060405190565b96879260e01b90565b825260049082905afa60009481611c30575b50611c0c5760405162461bcd60e51b815260206004820152602e60248201527f45524331393637557067726164653a206e657720696d706c656d656e7461746960448201526d6f6e206973206e6f74205555505360901b6064820152608490fd5b611c2b61042a94611c25611c21610408611894565b9190565b14611ae4565b611d10565b611c5291955060203d8111611c59575b611c4a81836108a3565b810190611ad0565b9338611bab565b503d611c40565b15611c6757565b60405162461bcd60e51b815260206004820152602d60248201527f455243313936373a206e657720696d706c656d656e746174696f6e206973206e60448201526c1bdd08184818dbdb9d1c9858dd609a1b6064820152608490fd5b906001600160a01b03906116d8565b90611ce16104086116f9926109b8565b8254611cc2565b61042a90611cfd611cf882611dcb565b611c60565b6000611d0a610408611894565b01611cd1565b91611d1a83611d4c565b8151611d29611c216000610eda565b11908115611d44575b50611d3b575050565b6114ea91611e28565b905038611d32565b611d5581611ce8565b611d7f7fbc7cd75a20ee27fd9adebab32041f755214dbc6bffa90cc0225b39da2e5c2d3b916109b8565b90611d8960405190565b80805b0390a2565b9061042a91611da26119a2306109b8565b61042a91611daf82612cfc565b600191611b42565b9061042a91611d91565b61040860c9611445565b3b611dd9611c216000610eda565b1190565b611de76027611a07565b7f416464726573733a206c6f772d6c6576656c2064656c65676174652063616c6c6020820152660819985a5b195960ca1b604082015290565b610408611ddd565b61040891611e34611e20565b91611e59565b3d15611e5457611e493d611a07565b903d6000602084013e565b606090565b6000806104089493611e69606090565b50805190602001845af4611e7b611e3a565b91611ecd565b15611e8857565b60405162461bcd60e51b815260206004820152601d60248201527f416464726573733a2063616c6c20746f206e6f6e2d636f6e74726163740000006044820152606490fd5b91929015611eff57508151611ee5611c216000610eda565b14611eee575090565b611efa61040891611dcb565b611e81565b8290611f09825190565b611f16611c216000610eda565b1115611f255750805190602001fd5b611606906115f160405190565b634e487b7160e01b600052601160045260246000fd5b81810292918115918404141715611f5b57565b611f32565b91908201809211611f5b57565b634e487b7160e01b600052603260045260246000fd5b90611f8c825190565b811015611f9a570160200190565b611f6d565b8015611f5b576000190190565b6109e26104086104089290565b61040890611fcd611c216104089460ff1690565b901c90565b15611fd957565b60405162461bcd60e51b815280611606600482016020808252818101527f537472696e67733a20686578206c656e67746820696e73756666696369656e74604082015260600190565b919060029261204e611a5d61203f8461203a88610eda565b611f48565b61204887610eda565b90611f60565b91600090603061206661206084610eda565b86611f83565b5361209e612095600f60fb1b9261203a6001998a95871a61208f61208988610eda565b8b611f83565b53610eda565b61204883610eda565b905b6120c2575b50610408939450906120bc611c2161040893610eda565b14611fd2565b916120cc86610eda565b83111561213a576f181899199a1a9b1b9c1cb0b131b232b360811b6120f1600f610eda565b8216906010821015611f9a57879261211161212e92612134941a60f81b90565b851a61211d8789611f83565b536121286004611fac565b90611fb9565b93611f9f565b906120a0565b916120a5565b6104089081906001600160a01b031681565b6104086014611fac565b6104086104086104089260ff1690565b6121896121846104089261217e606090565b506109af565b612140565b6115c2612194612152565b61215c565b6121b36301ffc9a760e01b5b916001600160e01b03191690565b1490565b906121df611c216121da6121846000610408966121d2600090565b5001946109af565b610eda565b612281565b8054821015611f9a576121fe600191600052602060002090565b91020190600090565b9160001960089290920291821b911b6116d8565b919061222a6104086116f99390565b908354612207565b90815491680100000000000000008310156108c5578261225a91600161042a950181556121e4565b9061221b565b90600019906116d8565b9061227a6104086116f992610eda565b8254612260565b61228e61158b83836122c7565b156122c0576122bb916122b69060016122af846122ab8482612232565b5490565b9301611358565b61226a565b600190565b5050600090565b6122e59160016122e0926122d9600090565b5001611358565b61147e565b6122f2611c216000610eda565b141590565b90612312611c216121da6121846000610408966121d2600090565b61238b565b91908203918211611f5b57565b634e487b7160e01b600052603160045260246000fd5b61042a9160009161221b565b8054801561236957600019019061236661236083836121e4565b9061233a565b55565b612324565b919061222a6104086116f993610eda565b61042a9160009161236e565b9061239c6122e08260018501611358565b6000926123a884610eda565b82146123fb5761040892612401949261240c9261240660019788936123d56123cf86610eda565b82612317565b888501916123f36123e4845490565b6123ed89610eda565b90612317565b828103612411575b50505090565b612346565b01611358565b61237f565b61225a61243a6124429461243161242b6122b695896121e4565b90610768565b928391886121e4565b888801611358565b3880806123fb565b61246060006104089261245b600090565b500190565b60006104089161246e600090565b50015490565b6103fc6104086104089290565b6124a66124a16104089361249c60006124ab9561245b600090565b6124b0565b6114f8565b612474565b6109af565b61040891600061242b926124c2600090565b50016121e4565b6104089060081c6109e2565b61040890546124c9565b156124e657565b60405162461bcd60e51b815260206004820152602e60248201527f496e697469616c697a61626c653a20636f6e747261637420697320616c72656160448201526d191e481a5b9a5d1a585b1a5e995960921b6064820152608490fd5b6109e26104086104089260ff1690565b906116f26104086116f992612542565b9061ff009060081b6116d8565b9061257f6104086116f992151590565b8254612562565b61049290611fac565b60208101929161042a9190612586565b926125ea91926125b261158b60006124d5565b93848061268d575b8015612648575b6125ca906124df565b600195856125e16125da89611fac565b6000612552565b612638576126ed565b6125f15750565b6125fc60008061256f565b6126337f7f26b83ff96e1f2b6a682f133852f6798a09c465da95921460cefb38474024989161262a60405190565b9182918261258f565b0390a1565b61264387600061256f565b6126ed565b5061265d61158b612658306109b8565b611dcb565b80156125c157506125ca6126716000611445565b61268561267e6001611fac565b9160ff1690565b1490506125c1565b506126986000611445565b6126a561267e6001611fac565b106125ba565b61040890612474565b906116f26104086116f992610a3a565b6000198114611f5b5760010190565b906126dc825190565b811015611f9a576020809102010190565b929160006126fa81610eda565b8514612bbb57612709816126ab565b906001600160a01b0382166001600160a01b03861614612b8d5761272b612c4b565b612733612c6b565b61273b612caf565b612743612c4b565b61274f8661019161226a565b61276661275e62278d00610eda565b61019261226a565b61277d61277562127500610eda565b61019361226a565b61279461278c62015180610eda565b61019561226a565b6127ab6127a36203f480610eda565b61019661226a565b6127c26127ba62093a80610eda565b61019761226a565b6127dd6127d5662386f26fc10000610eda565b61019461226a565b600180946129a76101986128228461281d6128177f19c51aade6e2a49f7ec24c208998650b05a060f31be7c7ce3a927580c1a6712f610f65565b84610f72565b6126b4565b6128528461281d6128177f19330bfd7e0c75f9aec91393843f2cf5fcca8250082a2f2e073f9a86f643ac2d610f65565b6128828461281d6128177f1b9ad0e4aacf9b4ce6f4860adceaada62d78fb186f25d345ab5f644567c2b633610f65565b61281d6002916128b88361281d6128177f70d26de5191fc8b6b2ea5767a966caf49891714569bf8e35d1f82a12cb959a01610f65565b6128e88361281d6128177ff21c00bad3bd5a55f3bf8c9e11868f937876f384821efa77b9b7a73a294691d5610f65565b6129188361281d6128177f3659cfe672549963da205df855ebfb8672cda4801e0255183bd6a6f536855df7610f65565b6129488361281d6128177f4f1ef2866b98625bdfefae89411f7a82754ac4089eff8e78c8832329a538337f610f65565b6129788361281d6128177fdd329b5cc2c0276e9db88ddb634b14ab6775bfc2e977df56b01bf43f77f1d181610f65565b6129a17fa89ae7d0e127de83ee9585429b3803816abac5f8bdc281e473659f44248b00f2610f65565b90610f72565b6129b3876114b5610ee7565b6129bf876114b5610c03565b6129e9877f5f58e3a2316349923ce3780f8d587db2d72378aed66a8261c916544fa6846ca56114b5565b816129f384610eda565b905b612b24575b505090612a0690610eda565b905b612aa3575b50505050612a3c816114b57ffd643c72710c63c0180259aba6b2d05451e3591a24e58b62239378085726f78390565b612a548160008051602061593d8339815191526114b5565b612a6c816000805160206158dd8339815191526114b5565b611d8c612a997f290a9d1bd9a992a26d178f5f8d2514edd099295c4ce6340dc3b7f441530cf3e8926109b8565b926104f660405190565b612aae610408845190565b811015612b1f5780612ad3612ac6612aef93866126d3565b516001600160a01b031690565b612ae56001600160a01b03851661187c565b03612af5576126c4565b83612a08565b612b1a60008051602061591d833981519152612b14612ac684886126d3565b906114b5565b6126c4565b612a0d565b612b2f610408835190565b811015612b885780612b47612ac6612b6393856126d3565b612b596001600160a01b03881661187c565b03612b69576126c4565b826129f5565b612b1a6000805160206158fd833981519152612b14612ac684876126d3565b6129fa565b60405163eac0d38960e01b815260206004820152600560248201526430b236b4b760d91b6044820152606490fd5b604051631a615ced60e11b8152600490fd5b9061042a93929161259f565b15612be057565b60405162461bcd60e51b815260206004820152602b60248201527f496e697469616c697a61626c653a20636f6e7472616374206973206e6f74206960448201526a6e697469616c697a696e6760a81b6064820152608490fd5b61042a612c4660006124d5565b612bd9565b61042a612c39565b612c60612c4660006124d5565b61042a61042a612c8f565b61042a612c53565b612c80612c4660006124d5565b61042a61042a600060c96116e2565b61042a612c73565b612ca4612c4660006124d5565b61042a61042a612ce8565b61042a612c97565b612cc4612c4660006124d5565b61042a612cd6565b6104086001610eda565b61042a612ce1612ccc565b60fb61226a565b61042a612cb7565b5061042a6114b0610c03565b61042a90612cf0565b61042a90612d146114b0610c03565b612d216103fc60006126ab565b6001600160a01b03821614612d6f57612d39906109b8565b612d458161019a611cd1565b7f22357fb36d236001335a40c33e873b98724147e176521651bc189500ab78b487611d8960405190565b60405163eac0d38960e01b815260206004820152600c60248201526b746f6b656e4164647265737360a01b6044820152606490fd5b61042a90612d05565b90610408939291612dbc613089565b612df5565b6001600160a01b03909116815260408101929161042a9160200152565b0152565b90815260408101929161042a9160200152565b509291906000612e04816126ab565b906001600160a01b0382166001600160a01b0387161461300e578091612e3461187c6119ef611b7c61019a611a7a565b03612f68575b501580612f48575b80612f25575b612ef157612e568285613997565b91612e6083613ea2565b91612e6f61040861019161147e565b8310612ec257612e8361040861019261147e565b8311612e935761040894956142f5565b82612e9f61019261147e565b90611606612eac60405190565b630e62012f60e31b815292839260048401612de2565b82612ece61019161147e565b90611606612edb60405190565b63d6ef4a3160e01b815292839260048401612de2565b336000805160206158fd8339815191525b90611606612f0f60405190565b635270d4bf60e11b815292839260048401612dc1565b50612f4361158b6000805160206158dd8339815191525b339061144f565b612e48565b50612f6361158b6000805160206158fd833981519152612f3c565b612e42565b612fb4906020612f7c611b7c61019a611a7a565b6370a0823190612f9d3392612f9060405190565b9687948593849360e01b90565b83526001600160a01b031660048301526024820190565b03915afa80928293612fee575b501503612e3a57612fd9611c2161040861019461147e565b1015612fe6575b38612e3a565b506001612fe0565b61300791935060203d8111611c5957611c4a81836108a3565b9138612fc1565b60405163eac0d38960e01b81526020600482015260066024820152651d185c99d95d60d21b6044820152606490fd5b6104089291906000612dad565b1561305157565b60405162461bcd60e51b815260206004820152601060248201526f14185d5cd8589b194e881c185d5cd95960821b6044820152606490fd5b61042a61309761158b611dc1565b61304a565b90610408916130a9613089565b906130bb916130b6613533565b613230565b9061042a612cd6565b60051115610a2b57565b9061042a826130c4565b612dde61042a946130fe6060949897956130f7608086019a6000870152565b6020850152565b6040830152565b634e487b7160e01b600052602260045260246000fd5b906001600283049216801561313b575b602083101461313657565b613105565b91607f169161312b565b805460009392916131626131588361311b565b8085529360200190565b91600181169081156131b4575060011461317b57505050565b61318e9192939450600052602060002090565b916000925b8184106131a05750500190565b805484840152602090930192600101613193565b92949550505060ff1916825215156020020190565b9061040891613145565b9061042a6131ed926131e460405190565b938480926131c9565b03836108a3565b610408906131d3565b610408906130ce565b906116f26104086116f9926131fd565b9081526104089160408201915b602081840391015261054d565b506132406104088261019b611358565b90600482019061324f82611445565b60019061326461325e836130ce565b916130ce565b0361340c575b426003850161328961040861327e8361147e565b61204861019361147e565b8211156133da57505061329a610c03565b6132a861158b33809361144f565b806133b4575b6133aa57506132c76132bf85611a7a565b91850161147e565b926132e06132d7600287016131f4565b91600290613206565b60009182916132f5836117298761019c611358565b7f913928faeddbeb42b03e074bdf7db96abfcaa8f11f452d384ef8fe73a8940d6394958695613323846109b8565b97889161332f60405190565b8061333b878783613216565b0390a3602082019151925af192613358613353611e3a565b941590565b6133625750505090565b613370906004809101613206565b8261339f7f259d619dd0cb65e38935bc4d065aed38b08f204b46ddfda5795ad4aabad9ad7e916105b560405190565b0390a33880806123fb565b612f026000610eda565b506133d561158b826000805160206158dd83398151915261144f565b61144f565b6132ae565b6116066133e7859261147e565b926133f361019361147e565b6040516339e1444f60e11b8152948594600486016130d8565b61341583611445565b61342261325e60006130ce565b146134ab5761343083611445565b61343d61325e60026130ce565b146134845761344b83611445565b61345861325e60036130ce565b0361326a576116068261346a60405190565b631eb1656f60e01b81529182916004830190815260200190565b6116068261349160405190565b63574cf42560e11b81529182916004830190815260200190565b611606826134b860405190565b637080aaeb60e11b81529182916004830190815260200190565b61040890606061309c565b6104086002610eda565b156134ee57565b60405162461bcd60e51b815260206004820152601f60248201527f5265656e7472616e637947756172643a207265656e7472616e742063616c6c006044820152606490fd5b61042a61354060fb61147e565b612ce161354b6134dd565b918214156134e7565b61355c610c03565b61356a61158b33809361144f565b806135de575b806135c0575b6133aa57506135879061019461226a565b61359261019461147e565b6126337f0517211ced6e2fe76697c1baed31e904f946f4a9ed9ba831b5c5fc722ce9eda5916104f660405190565b506135cd6103fc306109b8565b6001600160a01b0382161415613576565b506135fa61158b826000805160206158dd83398151915261144f565b613570565b9061042a9161360f6114b0610c03565b90600061361e6103fc826126ab565b6001600160a01b0383161461383257613635610c03565b8084146137e8575b506000805160206158dd83398151915280841461370a575b505061366f6104086000805160206158fd83398151915290565b821480156136f3575b6136ca575b6136878183611625565b6136b86136b27f155aaafb6329a2098580462df33ec4b7441b19729b9601c5fc17ae1cf99a8a529390565b916109b8565b916136c260405190565b80805b0390a3565b6136d3826113fc565b6136e0611c216001610eda565b1161367d575033611606612f0f60405190565b5060008051602061591d8339815191528214613678565b613713816113fc565b90600191613723611c2184610eda565b11156137da5781613735600094610eda565b905b613782575b5050507fb042dff0d2902dfbafc756c90710226f7608e411649827085ed69e60e56e04269061376d6136b2846109b8565b9161377760405190565b600090a33880613655565b61378e610408836113fc565b8110156137d55761379f81836113dc565b6001600160a01b0386166001600160a01b038216036137c857506137c2906126c4565b82613737565b935050505038808061373c565b61373c565b8433611606612f0f60405190565b6137f1906113fc565b6137fe611c216001610eda565b11801561381f575b15613811573861363d565b8233611606612f0f60405190565b506001600160a01b038216331415613806565b60405163eac0d38960e01b81526020600482015260076024820152661858d8dbdd5b9d60ca1b6044820152606490fd5b9061042a916135ff565b9061042a9161387c6114b0610c03565b6138896103fc60006126ab565b6001600160a01b03831614613832576138a282826114bf565b7f2ae6a113c0ed5b78a53413ffbb7679881f11145ccfba4fb92e863dfcd5a1d2f36138cd82936109b8565b9283916138d960405190565b600090a36138f46000805160206158dd833981519152611c21565b146138fc5750565b6001611d8c7f22d9b439781dfd20c33ba7fefff7ab8e9457457e39cb3f8e941e33ef30e98cd8916104b560405190565b9061042a9161386c565b0180926001600160f81b0319169052565b613963613955611199835190565b516001600160e01b03191690565b9060048110613970575090565b6139879063ffffffff60e01b906004036008021b90565b1690565b6104089060f81c612542565b908051906004916139aa611c2184610eda565b1015613d02575b600092836139c561147261019993846109c1565b6139ce82610a30565b6139d782610a30565b11613cfa575b5082516139ec611c2186610eda565b10156139fa575b5050505090565b613a1d613a0f613a0983610eda565b85611f83565b516001600160f81b03191690565b93600194613a36613a0f613a3088610eda565b87611f83565b91613aa2600293613a9d613a4f613a0f61208988610eda565b916003956115e1613a6c613a0f8d613a668b610eda565b90611f83565b604051958694602086019485926139366001610581946139368288613936829b9a83996001600160f81b0319169052565b613947565b613ab161147282610198610f72565b613aba8a610a30565b613ac382610a30565b11613cf2575b50613af96121a5610f657fb8096599217b6797a38fcced557a5b62279ae341eff5746989b6665f0b1498cf610f65565b14613b07575b5050506139f3565b613b1084611fac565b91613b19875190565b613b26611c216044610eda565b1015613ccc575b613b3685611fac565b60ff841603613bd85750505050613b4c84610a30565b613b5586610a30565b10613bce575b613b64906126ab565b50815192606493613b77611c2186610eda565b1015613b8f575b505050505b38808080808080613aff565b613ba693611472930151908060a01b0316906109c1565b613baf82610a30565b613bb882610a30565b11613bc6575b808080613b7e565b905038613bbe565b9293508392613b5b565b9194509250613be8919450611fac565b60ff8316148015613cb7575b8015613ca2575b15613c2a5750509050613c0d81610a30565b613c1683610a30565b10613c22575b50613b83565b905038613c1c565b613c3384611fac565b60ff831614928315613c8b575b508215613c74575b5050613c545750613b83565b613c5d81610a30565b613c6683610a30565b1015613c1c57905038613c1c565b613c8391925061267e90611fac565b143880613c48565b613c96919350611fac565b60ff8216149138613c40565b50613cad6006611fac565b60ff831614613bfb565b50613cc26005611fac565b60ff831614613bf4565b9150613cec613ce7613a0f613ce16043610eda565b89611f83565b61398b565b91613b2d565b985038613ac9565b9450386139dd565b613d18613a0f613d126000610eda565b83611f83565b600190613d2a613a0f613a0984610eda565b90613d5f600292613a9d613d43613a0f613ce187610eda565b916003946115e1613a6c613a0f613d5989610eda565b8c611f83565b631b2ce7f360e11b91906001600160e01b031981168314908115613e86575b50613e7c5783613d8d87610eda565b905b613d9e575b50505050506139b1565b613db5610408613dac885190565b6123ed85610eda565b811015613e7757613e1c613dcc613a0f8389611f83565b613a9d613de7613a0f612089613de18b610eda565b87611f60565b613dff613a0f613d59613df98b610eda565b88611f60565b926115e1613a6c613a0f8d613a66613e168c610eda565b8b611f60565b6001600160e01b031984166001600160e01b0319821614908115613e5b575b50613e5057613e4a85916126c4565b90613d8f565b505050935050505090565b9050613e706121a563278f794360e11b610f65565b1438613e3b565b613d94565b5050935050505090565b9050613e9b6121a563278f794360e11b610f65565b1438613d7e565b613eac6002610a30565b613eb582610a30565b03613ec6575061040861019761147e565b613ed9613ed36001610a30565b91610a30565b03613ee95761040861019661147e565b61040861019561147e565b613f02611b7c61019a611a7a565b90600091613f1561187c6103fc856126ab565b14613f99576020613f4c91613f2e611b7c61019a611a7a565b612f9d6370a08231613f3f60405190565b9586948593849360e01b90565b03915afa829181613f79575b50613f61575090565b9050613f74611c2161040861019461147e565b101590565b613f9291925060203d8111611c5957611c4a81836108a3565b9038613f58565b5090565b9061040894939291613fad613089565b509093929091613fc06103fc60006126ab565b6001600160a01b0384161461300e57613fdd61040861019161147e565b821061407157613ff161040861019261147e565b8211614065576000805160206158fd833981519152943361401561158b828961144f565b80614044575b61403657506104089495506140308285613997565b936142f5565b8690611606612f0f60405190565b5061406061158b826000805160206158dd83398151915261144f565b61401b565b50612e9f61019261147e565b50612ece61019161147e565b610408939291906000613f9d565b94939160609161042a946140bd6140ca936140b660808b019460008c01906001600160a01b03169052565b60208a0152565b878203604089015261054d565b940152565b61040860a06108ca565b90610492906130ce565b8181106140ee575050565b806140fc600060019361237f565b016140e3565b9190601f811161411157505050565b61412361042a93600052602060002090565b906020601f840181900483019310614145575b6020601f9091010401906140e3565b9091508190614136565b90614158815190565b9067ffffffffffffffff82116108c55761417c82614176855461311b565b85614102565b602090601f83116001146141b7576116f99291600091836141ac575b5050600019600883021c1916906002021790565b015190503880614198565b601f198316916141cc85600052602060002090565b9260005b81811061420a575091600293918560019694106141f1575b50505002019055565b01516000196008601f8516021c191690553880806141e8565b919360206001819287870151815501950192016141d0565b9061042a9161414f565b61040890516130ce565b61042a91906142aa906080906004906142608161425a87516001600160a01b031690565b90611cd1565b61427860018201614272602088015190565b9061226a565b6142906002820161428a604088015190565b90614222565b6142a260038201614272606088015190565b01920161422c565b90613206565b9061042a91614236565b6142ee6142e660609361042a969897956142d960808601926000870152565b848203602086015261054d565b966040830152565b0190610a43565b9091929493614302600090565b5060009361430f856126ab565b936001600160a01b0385166001600160a01b0385161461300e5761433761040861019161147e565b881061454a5761434b61040861019261147e565b881161453e57429561439a6143608a89611f60565b61437f61436c60405190565b80926115e1602083019189898d8561408b565b61439161438a825190565b9160200190565b20998a98611f60565b956143b261187c6119ef84611a9461019b9e8f611358565b036144f6575b61442661447e97989961441a6001916144158c6143d36140cf565b6001600160a01b038c1688820152926143ed896020860152565b6143f88a6040860152565b6144038d6060860152565b61441086608086016140d9565b611358565b6142b0565b6117298a61019c611358565b61019e90614443611c2161443d6122e08c86611358565b92610eda565b146144d2575b506144917fc12713b76ba10e056a22d96f695ca35709830779c6f65311816f6729a09d6273936144768990565b9788966109b8565b9661448860405190565b948594856142ba565b0390a37f6da19cef8486af172c085de95b9b6a5acde209a53afb3f7171364f1cbdc3f07e906144bf336109b8565b916144c960405190565b80805b0390a390565b6144f0906122b6896144ea61019d6122ab8382612232565b92611358565b38614449565b6145056004611b54898c611358565b61451261325e60016130ce565b036143b8576116068761452460405190565b630a44e52960e21b81529182916004830190815260200190565b87612e9f61019261147e565b87612ece61019161147e565b9061040891614563613089565b906130bb91614570613533565b6145ad565b90815260608101939261042a929091604091612dde906020830152565b6001600160a01b039091168152610408916040820191613223565b506145bd6104088261019b611358565b60048101906145cb82611445565b916001926145db61325e856130ce565b03614811575b42600383016145f26104088261147e565b82106147e55761460761040861327e8361147e565b82116147b35750503361461c61158b82613ef4565b80614792575b8061477d575b8061475c575b614748575061464761463f83611a7a565b93830161147e565b93614660614657600285016131f4565b92600290613206565b6000614672816117298461019c611358565b8061469b7f8b7b712167f6dc65bddd7d9a42eec3ed7de70db3ffda6e8fbb166195a0fa10cb9390565b9687936146a7886109b8565b9485916146b360405190565b806146bf8a8783613216565b0390a360208501855191885af1946146dd6146d8611e3a565b961590565b6146e957505050505090565b614700611606949596610408600480809901613206565b61472e7f259d619dd0cb65e38935bc4d065aed38b08f204b46ddfda5795ad4aabad9ad7e916105b560405190565b0390a3604051636c544f3360e01b81529384938401614592565b60008051602061591d833981519152612f02565b5061477861158b826000805160206158dd83398151915261144f565b61462e565b5061478d61158b826133d0610c03565b614628565b506147ae61158b8260008051602061591d83398151915261144f565b614622565b6116066147c0879261147e565b926147cc61019361147e565b6040516316e2c7e160e31b8152948594600486016130d8565b6116066147f2879261147e565b926147fc60405190565b629b36e560e71b815293849360048501614575565b61481a81611445565b61482761325e60006130ce565b1461487c5761483581611445565b61484261325e60026130ce565b1461486f5761485081611445565b61485d61325e60036130ce565b036145e1576116068461346a60405190565b6116068461349160405190565b611606846134b860405190565b610408906060614556565b61489c610c03565b6148aa61158b33809361144f565b806149c7575b6133aa57506148c46104088261019b611358565b600481016148d181611445565b906000916148e161325e846130ce565b1461487c576148ef90611445565b6148fc61325e60026130ce565b036149825761491291611a946004808301613206565b61493d6136b27f259d619dd0cb65e38935bc4d065aed38b08f204b46ddfda5795ad4aabad9ad7e9390565b9161494760405190565b60208082526019908201527f4d616e75616c6c79206d61726b6564206173206661696c656400000000000000604082015280606081016136c5565b60405162461bcd60e51b815260206004820152601c60248201527f5472616e73616374696f6e206e6f7420657865637574656420796574000000006044820152606490fd5b506149e361158b826000805160206158dd83398151915261144f565b6148b0565b90610408916149f5613089565b906130bb91614a02613533565b5090614a136104088361019b611358565b614a1f60048201611445565b90600491614a2f61325e846130ce565b03614bdc574260038201614a4861040861327e8361147e565b8211614ba4575050614a58610c03565b614a6333809261144f565b8015614b81575b155b614b5c5750614a7a81611a7a565b92614a876001830161147e565b94614a94600284016131f4565b928401614aa2600282613206565b7f3d87529e931e3954abe9b7b3b2655c7548dfab376c9bab3424fcd160754e717a91928392614ad0886109b8565b948591878b614aea614ae160405190565b92839283613216565b0390a3600080602087018751908b8b5af197614b0c614b07611e3a565b991590565b15614b265750508495966104086116069661470093613206565b93955096955050917f8b7b712167f6dc65bddd7d9a42eec3ed7de70db3ffda6e8fbb166195a0fa10cb916144cc614ae160405190565b82611606614b6a6000610eda565b604051635270d4bf60e11b81529384938401612dc1565b50614a6c614b9d826000805160206158dd83398151915261144f565b9050614a6a565b6116068692614bb3869361147e565b614bbe61019361147e565b90614bc860405190565b6316e2c7e160e31b815295869586016130d8565b8382611606614bea60405190565b63d143665b60e01b8152928392830190815260200190565b6104089060606149e8565b6004611b54614c2792614c1e600090565b5061019b611358565b6121b361325e60046130ce565b61042a90614c40613089565b6004614c516104088361019b611358565b01614c5b81611445565b614c6861325e60016130ce565b03614d5a575b33614c8a61158b8260008051602061593d83398151915261144f565b80614d27575b80614d06575b80614ce5575b6133aa5750614cad90600390613206565b614cbe60006117298361019c611358565b7fdecc068a49633f4a89136211fcf06f0c95bb0756be29aaba7e7eec56da7945c590611d7f565b50614d0161158b826000805160206158dd83398151915261144f565b614c9c565b50614d2261158b826000805160206158fd83398151915261144f565b614c96565b50614d5561158b827ffd643c72710c63c0180259aba6b2d05451e3591a24e58b62239378085726f78361144f565b614c90565b614d6381611445565b614d7061325e60006130ce565b146134ab57614d7e81611445565b614d8b61325e60026130ce565b1461348457614d9981611445565b614da661325e60036130ce565b03614c6e576116068261346a60405190565b61042a90614c34565b610408614dd091614c1e600090565b90614dda82611a7a565b91614de76001820161147e565b926002820192614e18614e10614e0b6004614e046003880161147e565b9601611445565b6131fd565b9295946131f4565b929190565b610408614e2c91614c1e600090565b614e3581611a7a565b600090614e4761187c6103fc846126ab565b1480159190614f4757506004820191614e5f83611445565b614e6c61325e60026130ce565b1493614e7784611445565b90614e91600392614e8a61325e856130ce565b1495611445565b93600494614ea161325e876130ce565b1494840193614eaf85611445565b600190614ebe61325e836130ce565b149586614f1c575b61325e614ed5614edb92611445565b926130ce565b149384614f13575b84614ef3575b5050959493929190565b614f0991929450610408611c219142940161147e565b1015913880614ee9565b85159450614ee3565b9550614edb61325e614ed542614f3c611c2161040861327e8c8a0161147e565b119892505050614ec6565b929150508180918180918190565b614f5f6000610eda565b805b61019d614f6f610408825490565b821015614fb957611472614f8961242b84614f91946121e4565b61019c611358565b614fa4575b614f9f906126c4565b614f61565b90614fb1614f9f916126c4565b919050614f96565b505090565b90611a1461091783610faa565b9061042a611a34614fdb84614fbe565b93610faa565b600090614fed82610eda565b805b61019d614ffd610408825490565b82101561503f57611472614f8961242b84615017946121e4565b61502a575b615025906126c4565b614fef565b90615037615025916126c4565b91905061501c565b505061505061505691939293614fcb565b91610eda565b90815b61019d615067610408825490565b8210156150be5761242b8261507b926121e4565b61508a6114728261019c611358565b61509e575b50615099906126c4565b615059565b83612b1a6150b7926150b46150999597876126d3565b52565b929061508f565b5050905090565b6004611b546150d692614c1e600090565b6121b361325e60036130ce565b6150eb610c03565b6150f961158b33809361144f565b806151bc575b8061519e575b6133aa5750600061511581610eda565b8214612bbb5781831061518c5761512b90610eda565b831461518c5761513d8161019161226a565b6151498261019261226a565b6151558361019361226a565b6126337f322b0dd3c627850b87e09a9ef02a879ae06005ca4b830e3905acd60dd0ab22529361518360405190565b93849384614575565b604051635435b28960e11b8152600490fd5b506151ab6103fc306109b8565b6001600160a01b0382161415615105565b506151d861158b826000805160206158dd83398151915261144f565b6150ff565b6151e5610c03565b6151f361158b33809361144f565b806152c7575b806152a9575b6133aa575061521261040861019161147e565b811061529e5780821061528c5781831061528c5761523461040861019261147e565b8311612e93576152468161019561226a565b6152528261019661226a565b61525e8361019761226a565b6126337f3bad7ead84580409a7a0c4c74dab67bab951cea072012921a785f47abc52e3aa9361518360405190565b6040516346147f2b60e11b8152600490fd5b612ece61019161147e565b506152b66103fc306109b8565b6001600160a01b03821614156151ff565b506152e361158b826000805160206158dd83398151915261144f565b6151f9565b9061042a916152f86114b0610c03565b6153088261281d83610198610f72565b611d8c6153357fb56383735083852e01d74eec8f679e3393a792f6c20639b89dde1717b30d88df92610f65565b92610a7b60405190565b9061042a916152e8565b9061042a93929161535b6114b0610c03565b615384565b9190811015611f9a576020020190565b3561040881610a9f565b3561040881610461565b929392819385850361518c5761539a6000610eda565b855b8110156154325761542b816153d96153c06153bb61539c958c8b615360565b615370565b61281d6101986129a16153d4868c8c615360565b61537a565b6153e76153d4828888615360565b6153f56153bb838c8b615360565b906154236153357fb56383735083852e01d74eec8f679e3393a792f6c20639b89dde1717b30d88df92610f65565b0390a26126c4565b905061539a565b50945050505050565b9061042a939291615349565b9061042a916154576114b0610c03565b6154678261281d836101996109c1565b611d8c6153357f9dbde1f7b92ae666293ae43dfba2b144a807f209b093d4db911efa90895e14d3926109b8565b9061042a91615447565b9061042a9392916154b06114b0610c03565b6154bf565b356104088161040b565b929392819385850361518c576154d56000610eda565b855b8110156154325761555f816155156154f66153bb6154d7958c8b615360565b61281d61019961550f61550a868c8c615360565b6154b5565b906109c1565b61552361550a828888615360565b6155316153bb838c8b615360565b906154236153357f9dbde1f7b92ae666293ae43dfba2b144a807f209b093d4db911efa90895e14d3926109b8565b90506154d5565b9061042a93929161549e565b90610408939291615581613089565b61559f565b610f656155996104089263ffffffff1690565b60e01b90565b5060009290916155ae84610eda565b8314612bbb5782811061518c576155c484610eda565b821461518c576000805160206158fd833981519152336155e761158b828461144f565b80615671575b61566557505060049261562961040895936156389361560f6319c51aad615586565b9361561960405190565b9788956020870190815201614575565b602082018103825203836108a3565b615641306109b8565b9161564c8184613997565b9261565f61565985613ea2565b93610eda565b906142f5565b611606612f0f60405190565b5061568d61158b826000805160206158dd83398151915261144f565b6155ed565b6104089291906000615572565b906104089392916156ae613089565b5091906156bf61040861019161147e565b8310612ec25782811061528c5780821061528c576156e161040861019261147e565b8211614065576104089261571c60049361572b93615702638cc0e200615586565b9361570c60405190565b9687956020870190815201614575565b602082018103825203826108a3565b615734306109b8565b61573e8282613997565b9161574883613ea2565b9161565f6000610eda565b610408929190600061569f565b61042a9061577b60008051602061593d8339815191526114ed565b156157b257615788615833565b7f81990fd9a5c552b8e3677917d8a03c07678f0d2cb68f88b634aca2022e9bd19f611d7f336109b8565b6157ba615881565b7f5b65b0c1363b3003db9bcc5e1fd8805a6d6bf5bf6dc9d3431ee4494cd7d11766611d7f336109b8565b61042a90615760565b6157f5613089565b61042a615804600160c96116e2565b336126337f62e78cea01bee320cd4e420270b5ea74000d11b0c9f74754ebdbfc544b05a25891610d8c60405190565b61042a6157ed565b6158436158cc565b61042a615852600060c96116e2565b336126337f5db9ee0a495bf2e6ff9c91a7834c1ba4fdd244a5e8aa4e537bd38aeae4b073aa91610d8c60405190565b61042a61583b565b1561589057565b60405162461bcd60e51b815260206004820152601460248201527314185d5cd8589b194e881b9bdd081c185d5cd95960621b6044820152606490fd5b61042a6158d7611dc1565b61588956fe71840dc4906352362b0cdaf79870196c8e42acafade72d5d5a6d59291253ceb1b09aa5aeb3702cfd50b6b62bc4532604938f21248a27a1d5ca736082b6819cc1d8aa0f3194971a2a116679f7c2090f6939c8d4e01a2a8d7e41d55e5351469e6355435dd261a4b9b3364963f7738a7a662ad9c84396d64be3365284bb7f0a5041a164736f6c6343000814000a",
  "linkReferences": {},
  "deployedLinkReferences": {}
}